:020000040000FA
:0400000007EF00F016
:0A0008006582A2ED0FF07CEF10F00E
:100600000001000A006400E80310274355525245D8
:100610004E54204C56313A20256425252020004395
:10062000555252454E54204C56323A2025642525C9
:100630002020004C565F4D494E5F313A20256425FD
:1006400025202020004C565F4D494E5F323A202530
:10065000642525202020004F5045524154494F4EDB
:10066000204D4F44453A20004D414E55414C2020ED
:1006700020202020202020004155544F4D41544936
:090680004320202020202000006E
:10068A000450800B0D6E045004240F6E03AE50EF1D
:10069A0003F052EF03F053EF03F00F800F50D8B47A
:1006AA0059EF03F05BEF03F070EF03F00F28D8A4C3
:1006BA0061EF03F063EF03F06BEF03F0000E016EDE
:1006CA00000E026E000E036E000E046E038E000E04
:1006DA00046E78EF03F0000E016E000E026E000E3B
:1006EA00036E000E046E0850800B0E6E0D500E182D
:1006FA00D8B482EF03F084EF03F085EF03F00D8C9A
:10070A00085008240E6E07AE8DEF03F08FEF03F04A
:10071A0090EF03F00E800E50D8B496EF03F098EFE6
:10072A0003F0ADEF03F00E28D8A49EEF03F0A0EF7C
:10073A0003F0A8EF03F0000E056E000E066E000E21
:10074A00076E000E086E078E000E086EB5EF03F0F6
:10075A00000E056E000E066E000E076E000E086E85
:10076A000F500E5CD8B0BCEF03F0BEEF03F0E5EF1C
:10077A0003F00DACC3EF03F0C5EF03F0C7EF03F0CE
:10078A00800E0D1A0FC010F00EC00FF010C00EF040
:10079A0001C010F005C001F010C005F002C010F051
:1007AA0006C002F010C006F003C010F007C003F044
:1007BA0010C007F004C010F008C004F010C008F020
:1007CA00000E106E0F500EC009F00A6A095E000E84
:1007DA000A5A0ABEFAEF03F00A5009E11A0E095C36
:1007EA00D8A0FAEF03F0FCEF03F033EF04F0015066
:1007FA00021003100410D8A405EF04F008EF04F067
:10080A00010E09EF04F0000E106E000E016E000ECC
:10081A00026E000E036E000E046E0EC00FF03CEF67
:10082A0004F010A01BEF04F01DEF04F023EF04F016
:10083A00D89010300109106E25EF04F0D8901032CC
:10084A0001A02AEF04F02CEF04F02DEF04F0108E33
:10085A00043404320332023201320F2A0E500F5C82
:10086A00D8A03AEF04F03CEF04F016EF04F00DBC08
:10087A0041EF04F043EF04F083EF04F00F50D8A4E3
:10088A0049EF04F04BEF04F055EF04F0000E016E4F
:10089A00000E026E000E036E000E046EA4EF05F049
:1008AA00055001260650022207500322085004224E
:1008BA0004A062EF04F064EF04F010EF05F010A05A
:1008CA0069EF04F06BEF04F071EF04F0D890103088
:1008DA000109106E73EF04F0D890103201A078EF7E
:1008EA0004F07AEF04F07BEF04F0108E0434043243
:1008FA000332023201320F2A10EF05F00550015C73
:10090A0006500258075003580450800A096E0850CE
:10091A00800A0958D8B094EF04F096EF04F0C1EFBA
:10092A0004F00150055C096E025006580A6E035025
:10093A0007580B6E045008580C6EFF0E0924016EFE
:10094A00FF0E0A20026EFF0E0B20036EFF0E0C2014
:10095A00046E800E0D1A106C1050D8A4B7EF04F074
:10096A00B9EF04F0C9EF04F0010E0126000E0222CD
:10097A0003220422C9EF04F00550015E0650025A10
:10098A000750035A0850045A015002100310041069
:10099A00D8A4D2EF04F0D4EF04F009EF05F0105018
:1009AA00D8A4DAEF04F0DCEF04F009EF05F0000E4A
:1009BA00016E000E026E000E036E000E046EA4EFAE
:1009CA0005F0D890013602360336043610AEF0EF41
:1009DA0004F0F2EF04F0F3EF04F0018010A0F8EF56
:1009EA0004F0FAEF04F0FEEF04F0D880103600EFBE
:1009FA0005F0D89010360F50D8B406EF05F008EF7E
:100A0A0005F009EF05F00F0603AE0EEF05F010EF43
:100A1A0005F0E6EF04F0000E0E6E10AE17EF05F0CB
:100A2A0019EF05F031EF05F010C009F07F0E091635
:100A3A00D8B422EF05F024EF05F028EF05F0010EF7
:100A4A000E6E31EF05F001A02DEF05F02FEF05F046
:100A5A0031EF05F024EF05F00E50D8B437EF05F06A
:100A6A0039EF05F064EF05F0010E0126000E0222AF
:100A7A000322042204A044EF05F046EF05F064EFD8
:100A8A0005F001C009F002C00AF003C00BF004C06F
:100A9A000CF00C340C320B320A32093209C001F064
:100AAA000AC002F00BC003F00CC004F00F28D8B43F
:100ABA0061EF05F063EF05F064EF05F00F2A0F28E8
:100ACA00D8B46AEF05F06CEF05F074EF05F00F503B
:100ADA00D8A472EF05F074EF05F086EF05F0000E6A
:100AEA00016E000E026E000E036E000E046E0F50B1
:100AFA00D8A482EF05F084EF05F086EF05F0000E2A
:100B0A000D6E0FA08BEF05F08DEF05F090EF05F05D
:100B1A00038E91EF05F0039ED8900F30046E0DAE50
:100B2A0099EF05F09BEF05F09CEF05F0048E01C0EC
:100B3A0001F002C002F003C003F004C004F0120086
:100B4A001250800B1F6E12501224266E11AEB0EF97
:100B5A0005F0B2EF05F0B3EF05F026802650D8B4C1
:100B6A00B9EF05F0BBEF05F0D0EF05F02628D8A4C1
:100B7A00C1EF05F0C3EF05F0CBEF05F0000E0F6EE5
:100B8A00000E106E000E116E000E126E118E000E07
:100B9A00126ED8EF05F0000E0F6E000E106E000EEA
:100BAA00116E000E126E1650800B1F1A1650162464
:100BBA00276E15AEE3EF05F0E5EF05F0E6EF05F079
:100BCA0027802750D8B4ECEF05F0EEEF05F003EFDD
:100BDA0006F02728D8A4F4EF05F0F6EF05F0FEEFAB
:100BEA0005F0000E136E000E146E000E156E000E48
:100BFA00166E158E000E166E0BEF06F0000E136EB3
:100C0A00000E146E000E156E000E166E13501410A0
:100C1A0015101610D8A414EF06F016EF06F02EEFF2
:100C2A0006F0000E0F6E000E106E000E116E000E12
:100C3A00126E800E11127F0E12121F5012120FC066
:100C4A000FF010C010F011C011F012C012F071EFC5
:100C5A0007F02650D8A434EF06F036EF06F040EF3E
:100C6A0006F0000E0F6E000E106E000E116E000ED2
:100C7A00126E71EF07F0275026C017F0186A175E38
:100C8A00000E185A7F0E1724206E000E1820216EAF
:100C9A000FC01BF010C01CF011C01DF012C01EF0D6
:100CAA00000E0F6E000E106E000E116E000E126E08
:100CBA00000E226E000E236E000E246E000E256EAC
:100CCA00000E276EA1EF06F02750D8B46FEF06F09A
:100CDA0071EF06F088EF06F0D8901B361C361D36E9
:100CEA001E36D8900F3610361136123625AE80EFE2
:100CFA0006F082EF06F083EF06F00F80D8902236D6
:100D0A0023362436253613501B5C14501C581550B4
:100D1A001D5816501E58D8A095EF06F097EF06F00A
:100D2A00A0EF06F0258C13501B5E14501C5A155068
:100D3A001D5A16501E5A272A190E2764A7EF06F0C5
:100D4A00A9EF06F069EF06F01B501C101D101E10CB
:100D5A00D8B4B2EF06F0B4EF06F0CCEF06F022807A
:100D6A00CCEF06F0D8900F3610361136123625AE73
:100D7A00C1EF06F0C3EF06F0C4EF06F00F80D8907B
:100D8A0022362336243625362006D8A0210611AE6F
:100D9A00D1EF06F0D3EF06F0B7EF06F0000E276E9C
:100DAA0025AEDAEF06F0DCEF06F000EF07F0FF0EF3
:100DBA002214176EFF0E2314186EFF0E2414196ED8
:100DCA007F0E25141A6E1750181019101A10D8B45D
:100DDA00F1EF06F0F3EF06F0F7EF06F0010E276EDB
:100DEA0000EF07F00FA0FCEF06F0FEEF06F000EFB1
:100DFA0007F0F3EF06F02750D8B406EF07F008EF34
:100E0A0007F02CEF07F0010E0F26000E1022112218
:100E1A00122212A013EF07F015EF07F02CEF07F0DC
:100E2A000FC017F010C018F011C019F012C01AF054
:100E3A001A341A3219321832173217C00FF018C082
:100E4A0010F019C011F01AC012F0204A212A21BE4E
:100E5A0037EF07F0215008E12028D8A037EF07F034
:100E6A0039EF07F044EF07F0000E216E2068000EFC
:100E7A000F6E000E106E000E116E000E126E21BE65
:100E8A0051EF07F0215006E12004D8B04FEF07F0E8
:100E9A0051EF07F05FEF07F0000E216E000E206E93
:100EAA00000E0F6E000E106E000E116E000E126E06
:100EBA00000E1F6E20C026F026A066EF07F068EF2E
:100ECA0007F06BEF07F0118E6CEF07F0119ED890C8
:100EDA002630126E22EF06F01200096E0950D8B4BD
:100EEA0079EF07F07BEF07F09DEF07F004BE82EF82
:100EFA0007F080EF07F09DEF07F001C005F002C090
:100F0A0006F003C007F004C008F0051E061E071EFF
:100F1A00081E052A000E06220722082205C00BF029
:100F2A0006C00CF007C00DF008C00EF0A5EF07F0E0
:100F3A0001C00BF002C00CF003C00DF004C00EF0AB
:100F4A000150021003100410D8A4AEEF07F0B0EF5E
:100F5A0007F0BAEF07F0000E016E000E026E000EE7
:100F6A00036E000E046E4BEF08F0960E0A6EC4EF85
:100F7A0007F00A2AD8900E320D320C320B32000ECC
:100F8A000B14056E000E0C14066E000E0D14076E7F
:100F9A00FE0E0E14086E0550061007100810D8A48D
:100FAA00D9EF07F0DBEF07F0BEEF07F0E9EF07F044
:100FBA000A2A010E0B26000E0C220D220E22D890B0
:100FCA000E320D320C320B32000E0B14056E000E6F
:100FDA000C14066E000E0D14076EFF0E0E14086E2A
:100FEA000550061007100810D8A4FEEF07F000EF0E
:100FFA0008F0DDEF07F008EF08F00A06D8900B3684
:10100A000C360D360E360DBE0DEF08F00FEF08F058
:10101A0017EF08F0020E0A6015EF08F017EF08F054
:10102A0002EF08F00AB01CEF08F01EEF08F01FEFFD
:10103A0008F00D9ED8900A320AC005F0066A076ABF
:10104A00086A05C008F0076A066A056A05500B12A5
:10105A0006500C1207500D1208500E120950D8B43F
:10106A0039EF08F03BEF08F043EF08F004BE42EF17
:10107A0008F040EF08F043EF08F00E8E0BC001F0C5
:10108A000CC002F00DC003F00EC004F01200110EE5
:10109A00146E000E156E04EF09F0250E1A18D8B456
:1010AA0059EF08F05BEF08F065EF08F00DC0D9FFC3
:1010BA000EC0DAFF1AC0DFFF0D4A0E2A04EF09F04C
:1010CA00000E166E0FC0F6FF10C0F7FF0F4A102A67
:1010DA000800F5CF1AF01A50000AD8B415EF09F033
:1010EA00640AD8B47FEF08F00D0AD8B47FEF08F08D
:1010FA005BEF08F014C0D9FF15C0DAFFDECF18F095
:10110A00DDCF19F0020E1426000E152219BE92EF39
:10111A0008F090EF08F098EF08F0030E1612186C1A
:10112A00191ED8B0192A010E1A6E1A50020D010E94
:10113A00F324F66E060EF420F76E0900F550185CDB
:10114A000900F5501958D8B0ADEF08F0AFEF08F024
:10115A00B1EF08F0BBEF08F01A2A050E1A18D8A446
:10116A00B9EF08F0BBEF08F09AEF08F016C013F0D9
:10117A00030E1316D8B4C4EF08F0C6EF08F0CEEF8A
:10118A0008F00DC0D9FF0EC0DAFF2D0EDF6E0D4A32
:10119A000E2A1AC017F0FBEF08F01750020D010EC5
:1011AA00F324F66E060EF420F76E0900F5CF03F06D
:1011BA000A00F5CF04F018C001F019C002F0DFEC04
:1011CA000FF001C008F002C009F0000E0B6E0A0E03
:1011DA000A6E19EC10F00850300F1A6E0DC0D9FFC4
:1011EA000EC0DAFF1AC0DFFF0D4A0E2A17061728AB
:1011FA00D8A402EF09F004EF09F0D2EF08F00FC00B
:10120A00F6FF10C0F7FF0F4A102A0800F5CF1AF0B0
:10121A001A50D8A413EF09F015EF09F052EF08F0AD
:10122A000DC0D9FF0EC0DAFF000EDF6E120051505A
:10123A00D8A422EF09F024EF09F056EF09F0800E46
:10124A000D6E000E0E6E0B0E0F6E060E106E41C066
:10125A0001F042C002F043C003F044C004F0FEECC7
:10126A000BF001C011F002C012F04CEC08F0900E25
:10127A000D6E000E0E6E1F0E0F6E060E106E35C02E
:10128A0001F036C002F037C003F038C004F0FEECBB
:10129A000BF001C011F002C012F04CEC08F0BFEFE5
:1012AA0009F05104D8A45CEF09F05EEF09F086EF6B
:1012BA0009F0800E016E000E026E570E036E060EC6
:1012CA00046EC1EC10F05250D8B46EEF09F070EF12
:1012DA0009F076EF09F0680E1B6E060E1C6E7AEFA7
:1012EA0009F0780E1B6E060E1C6E900E016E000E33
:1012FA00026E1BC003F01CC004F0C1EC10F0BFEF7B
:10130A0009F0020E5118D8A48DEF09F08FEF09F0F9
:10131A00BFEF09F0800E0D6E000E0E6E330E0F6ECB
:10132A00060E106E45C001F046C002F047C003F039
:10133A0048C004F0FEEC0BF001C011F002C012F03C
:10134A004CEC08F0900E0D6E000E0E6E450E0F6EF0
:10135A00060E106E39C001F03AC002F03BC003F02D
:10136A003CC004F0FEEC0BF001C011F002C012F018
:10137A004CEC08F01200036E84928484016A03AE76
:10138A0001D0012A010E01160132013283500118DF
:10139A007F0B0118836E03C001F0060E026ED8900F
:1013AA000132022ED4EF09F0010E0116013A01466C
:1013BA00014683500118BF0B0118836E03C001F068
:1013CA00050E026ED8900132022EE7EF09F0010EE7
:1013DA000116013A014683500118DF0B0118836E8A
:1013EA0003C001F0013A0F0E0116010E0116013A6F
:1013FA0083500118EF0B0118836E030EE82EFED7F7
:10140A0000F08482030EE82EFED700F0849203C017
:10141A0001F0D8900132D8900132D8900132010EF1
:10142A00011601320132835001187F0B0118836EB5
:10143A0003C001F0D8900132D8900132010E011692
:10144A00013A0146014683500118BF0B0118836E09
:10145A0003C001F0D8900132010E0116013A01468B
:10146A0083500118DF0B0118836E03C001F0010ECF
:10147A000116013A83500118EF0B0118836E030E0F
:10148A00E82EFED700F08482030EE82EFED700F085
:10149A008492030EE82EFED700F00F0E016E480E5E
:1014AA00E82EFED7012EFCD71200036E8492849494
:1014BA00016A03AE01D0012A010E0116013201327E
:1014CA00835001187F0B0118836E03C001F0060ECA
:1014DA00026ED8900132022E6EEF0AF0010E01164A
:1014EA00013A0146014683500118BF0B0118836E69
:1014FA0003C001F0050E026ED8900132022E81EF70
:10150A000AF0010E0116013A014683500118DF0B59
:10151A000118836E03C001F0013A0F0E0116010E85
:10152A000116013A83500118EF0B0118836E030E5E
:10153A00E82EFED700F08482030EE82EFED700F0D4
:10154A00849203C001F0D8900132D8900132D89029
:10155A000132010E011601320132835001187F0B4C
:10156A000118836E03C001F0D8900132D89001327D
:10157A00010E0116013A0146014683500118BF0BBC
:10158A000118836E03C001F0D8900132010E0116D2
:10159A00013A014683500118DF0B0118836E03C01C
:1015AA0001F0010E0116013A83500118EF0B0118E0
:1015BA00836E030EE82EFED700F08482030EE82E17
:1015CA00FED700F084920F0E016E480EE82EFED769
:1015DA00012EFCD71200959E959C959A9598969403
:1015EA009692839E839C839A8398849284940F0E06
:1015FA00046E480EE82EFED7042EFCD70F0E046E9A
:10160A00480EE82EFED7042EFCD70F0E046E480EA5
:10161A00E82EFED7042EFCD70F0E046E480EE82ED5
:10162A00FED7042EFCD70F0E046E480EE82EFED706
:10163A00042EFCD70F0E046E480EE82EFED7042E99
:10164A00FCD7010E056E839E839C838A83888492CD
:10165A008494839E839C838A838884828494030EE1
:10166A00E82EFED700F0839E839C838A8388849227
:10167A0084940F0E046E480EE82EFED7042EFCD773
:10168A00052A030E05644CEF0BF04EEF0BF028EF22
:10169A000BF0839E839C838A839884928494839E8E
:1016AA00839C838A839884828494030EE82EFED7CF
:1016BA0000F0839E839C838A8398849284940F0E7D
:1016CA00046E480EE82EFED7042EFCD7280E5AECDC
:1016DA000AF0100E5AEC0AF0010E5AEC0AF00F0E3C
:1016EA005AEC0AF0120035C011F036C012F037C0B9
:1016FA0013F038C014F03DC015F03EC016F03FC0DC
:10170A0017F040C018F081EC0CF0D8B08FEF0BF056
:10171A0092EF0BF0010E93EF0BF0000E1D6E45C019
:10172A0011F046C012F047C013F048C014F041C08F
:10173A0015F042C016F043C017F044C018F081EC0F
:10174A000CF0D8B0ABEF0BF0ADEF0BF0D2EF0BF023
:10175A0035C011F036C012F037C013F038C014F09B
:10176A0039C015F03AC016F03BC017F03CC018F06B
:10177A0081EC0CF0D8B0C4EF0BF0C6EF0BF0D2EF4F
:10178A000BF08B0E016E0F0E026E000E046E000E31
:10179A00036E13EC11F0FDEF0BF045C011F046C0DB
:1017AA0012F047C013F048C014F041C015F042C00F
:1017BA0016F043C017F044C018F081EC0CF0D8B012
:1017CA00E9EF0BF0EBEF0BF0F3EF0BF01D50D8B491
:1017DA00F1EF0BF0F3EF0BF0FDEF0BF08B0E016E58
:1017EA000F0E026E000E046E000E036EDFEC10F098
:1017FA001200033404340A6E0A50D8A407EF0CF01E
:10180A0009EF0CF013EF0CF0000E016E000E026EE1
:10181A00000E036E000E046E80EF0CF001C005F09E
:10182A0002C006F003C007F004C008F0200E23EF40
:10183A000CF0D8900832073206320532E82E1EEF35
:10184A000CF00550096E038EFF0E0116FF0E0216EC
:10185A00FF0E0316000E0416960E0A5E0ABE3AEF33
:10186A000CF038EF0CF050EF0CF00A50800A970F8A
:10187A00D8B042EF0CF044EF0CF046EF0CF009EF51
:10188A000CF0D89004320332023201320A3E46EF9B
:10189A000CF068EF0CF01F0E0A6456EF0CF058EFCC
:1018AA000CF060EF0CF009EF0CF0D890013602361C
:1018BA00033604360A060A50D8A466EF0CF068EF1D
:1018CA000CF05AEF0CF00950D8B46EEF0CF070EF30
:1018DA000CF078EF0CF0041E031E021E016C000EC1
:1018EA0002220322042201C001F002C002F003C056
:1018FA0003F004C004F01200000E1114196E000E59
:10190A0012141A6E800E13141B6E7F0E14141C6EA2
:10191A0019501A101B101C10D8A496EF0CF098EF4F
:10192A000CF0A0EF0CF0000E116E000E126E000EFD
:10193A00136E000E146E000E1514196E000E161496
:10194A001A6E800E17141B6E7F0E18141C6E195017
:10195A001A101B101C10D8A4B5EF0CF0B7EF0CF03E
:10196A00BFEF0CF0000E156E000E166E000E176E0D
:10197A00000E186E14AEC4EF0CF0C6EF0CF0CFEFE9
:10198A000CF0116C121ED8B0122A131ED8B0132AEA
:10199A00800E145618AED4EF0CF0D6EF0CF0DFEF31
:1019AA000CF0156C161ED8B0162A171ED8B0172AB6
:1019BA00800E1856000E111A000E121A000E131A73
:1019CA00800E141A000E151A000E161A000E171A97
:1019DA00800E181A1550115C1650125817501358C9
:1019EA0018501458D8B0FCEF0CF0FEEF0CF001EFD1
:1019FA000DF0D89002EF0DF0D8801200A0EC10F094
:101A0A008BEC11F0F0EC0AF00C0E5AEC0AF04BECED
:101A1A0010F0040081EC0EF081CF29F02A6A000E42
:101A2A002C6E000E2B6E590E2D6E000E2E6E620E4F
:101A3A002F6E000E306E420E316E1E0E326E6BEC41
:101A4A000DF05250D8A42CEF0DF02EEF0DF032EF1E
:101A5A000DF078EC0BF034EF0DF02BEC11F081CF98
:101A6A0029F02A6A000E2C6E030E2B6E550E2D6E6F
:101A7A00000E2E6E5E0E2F6E000E306E4A0E316E06
:101A8A001C0E326E6BEC0DF081CF29F02A6A000E23
:101A9A002C6E040E2B6E530E2D6E000E2E6E5C0EE7
:101AAA002F6E000E306E920E316E1B0E326E6BEC84
:101ABA000DF064A063EF0DF065EF0DF00EEF0DF081
:101ACA0068EC11F00EEF0DF007EF00F029C001F0FD
:101ADA002AC002F02BC003F02CC004F041EC11F034
:101AEA0001500210D8A47CEF0DF07EEF0DF0B8EF94
:101AFA000DF02DC0D9FF2EC0DAFFDE50DE10D8A4BB
:101B0A0089EF0DF08BEF0DF0C8EF0DF02FC0D9FF64
:101B1A0030C0DAFFDE50DE10D8B496EF0DF098EF41
:101B2A000DF0A1EF0DF02FC0D9FF30C0DAFFDE06AD
:101B3A00000EDD5AC8EF0DF02DC0D9FF2EC0DAFF16
:101B4A00010EDE6E000EDD6E02D8B6EF0DF0050056
:101B5A00FA6E3150FD6E3250FE6EF850FF6EFA503A
:101B6A001200C8EF0DF02FC0D9FF30C0DAFF0A0EFD
:101B7A00DE6E000EDD6E2DC0D9FF2EC0DAFF000E1C
:101B8A00DE6E000EDD6E1200020E516E68EC11F070
:101B9A00000ED76E830ED66EFF0E506E060E4F6E77
:101BAA00000E116E000E126EC80E136E420E146EE7
:101BBA00000E056E000E066E200E076E410E086EB0
:101BCA0039C001F03AC002F03BC003F03CC004F057
:101BDA0045EC03F001C015F002C016F003C017F07F
:101BEA0004C018F081EC0CF0D8A0FEEF0DF000EF65
:101BFA000EF01CEF0EF039C001F03AC002F03BC003
:101C0A0003F03CC004F0000E056E000E066E200EB6
:101C1A00076E410E086E45EC03F001C039F002C0B0
:101C2A003AF003C03BF004C03CF024EF0EF0000E83
:101C3A00396E000E3A6E000E3B6E000E3C6E1200BC
:101C4A00020E516E68EC11F0000ED76E830ED66E3E
:101C5A00FF0E506E060E4F6E000E116E000E126EC3
:101C6A00C80E136E420E146E000E056E000E066E3E
:101C7A00200E076E410E086E45C001F046C002F004
:101C8A0047C003F048C004F045EC03F001C015F06A
:101C9A0002C016F003C017F004C018F081EC0CF073
:101CAA00D8A05AEF0EF05CEF0EF078EF0EF045C0B8
:101CBA0001F046C002F047C003F048C004F0000E2D
:101CCA00056E000E066E200E076E410E086E45EC7C
:101CDA0003F001C045F002C046F003C047F004C05B
:101CEA0048F080EF0EF0000E456E000E466E000EB4
:101CFA00476E000E486E1200000E64EC0FF001C031
:101D0A0028F002C029F0010E64EC0FF001C02AF09D
:101D1A0002C02BF028C001F029C002F0000E02BE5A
:101D2A00FF0E036E046E010E72EC07F001C00FF095
:101D3A0002C010F003C011F004C012F0140E136EAA
:101D4A00AE0E146E230E156E410E166EA5EC05F03E
:101D5A000FC041F010C042F011C043F012C044F06D
:101D6A002AC001F02BC002F0000E02BEFF0E036E65
:101D7A00046E010E72EC07F001C00FF002C010F001
:101D8A0003C011F004C012F0140E136EAE0E146EDE
:101D9A00230E156E410E166EA5EC05F00FC035F038
:101DAA0010C036F011C037F012C038F01200076EBA
:101DBA00F3EF0EF00450800F086E06EF0FF0045098
:101DCA00C00F086E06EF0FF00450940F086E06EF6E
:101DDA000FF00450D40F086E06EF0FF00750010AF7
:101DEA00D8B4DFEF0EF0030AD8B4E4EF0EF0010A1C
:101DFA00D8B4E9EF0EF0070AD8B4EEEF0EF006EF0A
:101E0A000FF008505AEC0AF014EF0FF005C0D9FF92
:101E1A0006C0DAFFDF50C0EC09F0054A062A05C001
:101E2A00D9FF06C0DAFFDF50D8A41EEF0FF020EF6B
:101E3A000FF00BEF0FF012008CB026EF0FF029EF26
:101E4A000FF0010E2AEF0FF0000EFF0A0A6E8C50F7
:101E5A000A18FE0B0A188C6E5250D8A437EF0FF0EE
:101E6A0039EF0FF03DEF0FF0010E526E3FEF0FF01A
:101E7A00000E526E5204D8A445EF0FF047EF0FF050
:101E8A0063EF0FF082CF01F0026A000E046E000EBB
:101E9A00036E41EC11F001040210D8A457EF0FF0C1
:101EAA0059EF0FF063EF0FF08B0E016E0F0E026EFB
:101EBA00000E046E000E036EDFEC10F01200076EC7
:101ECA0073EF0FF0010EC26E82EF0FF0090EC26EB1
:101EDA0082EF0FF0110EC26E82EF0FF00750000A68
:101EEA00D8B467EF0FF0010AD8B46BEF0FF0030A0A
:101EFA00D8B46FEF0FF082EF0FF0C282C2B288EF50
:101F0A000FF08AEF0FF083EF0FF0C3CF03F0060E46
:101F1A00046ED8900332042E8EEF0FF00350C4CF14
:101F2A0005F0066AD89005360636D8900536063684
:101F3A000510016E0650026E12000600F2A4A8EF08
:101F4A000FF0AAEF0FF0DDEF0FF0F294000ED76E4C
:101F5A00830ED66E4F4A502A4D4A4E2AF40E4F1817
:101F6A0006E15004D8A4BCEF0FF0BEEF0FF0CEEF9D
:101F7A000FF0000E506E000E4F6E512A030E5118CC
:101F8A00D8A4CAEF0FF0CCEF0FF0CEEF0FF0000E8F
:101F9A00516E7D0E4D184E10D8A4D6EF0FF0D8EF23
:101FAA000FF0DDEF0FF0000E4E6E000E4D6E6480E6
:101FBA0065921100000E066E000E056E03500410A5
:101FCA00D8B4EAEF0FF0ECEF0FF014EF10F0010EB7
:101FDA00076EF4EF0FF0D89003360436072A04AEE2
:101FEA00F9EF0FF0FBEF0FF0F0EF0FF0D890053696
:101FFA0006360350015C04500258D8A007EF10F0CF
:10200A0009EF10F00EEF10F00350015E0450025A6F
:10201A000580D89004320332072EFBEF0FF005C07B
:10202A0001F006C002F012000A500B10D8B420EFDB
:10203A0010F022EF10F046EF10F0010E0C6E2AEFAE
:10204A0010F0D8900A360B360C2A0BAE2FEF10F090
:10205A0031EF10F026EF10F00A50085C0B500958C7
:10206A00D8A03AEF10F03CEF10F040EF10F00A5011
:10207A00085E0B50095AD8900B320A320C2E31EFF7
:10208A0010F008C008F009C009F01200000E416EF5
:10209A00000E426E000E436E000E446E000E456E38
:1020AA00000E466E000E476E000E486E000E496E18
:1020BA00000E4A6EC80E4B6E420E4C6E000E356E06
:1020CA00000E366E000E376E000E386E000E396E38
:1020DA00000E3A6E000E3B6E000E3C6E000E3D6E18
:1020EA00000E3E6EB40E3F6E420E406E1200240E7B
:1020FA00F66E230EF76E000EF86E00EE5BF010EE31
:10210A0009F00900F5CFEEFFE550E150FAE100EEE3
:10211A0080F0200EEE6AE806FDE1646A00EE35F012
:10212A00260EEE6AE806FDE165906592000EF86EED
:10213A00000103EF0DF0F19E3F0E936E000E946EB8
:10214A00000E956E000E966E000E816E000E8A6E5F
:10215A00000E826E000E8B6E000E836E000E8C6E69
:10216A00000E846E000E8D6EF28E97EC11F082ECEA
:10217A0011F00F0EC16E120001C005F002C006F088
:10218A00CBEF10F0054A062A034A042A03C0F6FFD9
:10219A0004C0F7FF05C0D9FF06C0DAFF0800F5CF73
:1021AA00DFFFDF50D8A4DCEF10F0DEEF10F0C7EF4E
:1021BA0010F0120003C005F0010E066E000E076E45
:1021CA00052AEBEF10F0D89006360736052EE8EF11
:1021DA0010F0061C086E071C096E01C0D9FF02C068
:1021EA00DAFF0850DE160950DD16120003C005F0AA
:1021FA00010E066E000E076E052A07EF11F0D89041
:10220A0006360736052E04EF11F001C0D9FF02C0C9
:10221A00DAFF0650DE1A0750DD1A120003C005F075
:10222A00010E066E000E076E052A1FEF11F0D890F8
:10223A0006360736052E1CEF11F001C0D9FF02C081
:10224A00DAFF0650DE120750DD12120081CF29F0A4
:10225A002A6A000E2C6E010E2B6E570E2D6E000E82
:10226A002E6E600E2F6E000E306EEE0E316E220E46
:10227A00326E6BEC0DF0120003C005F001C006F0DF
:10228A0002C007F0052A4DEF11F0D8900732063246
:10229A00052E4AEF11F0010E0614016E026A1200B1
:1022AA00000E046E090E056E000E066E010EDCECC1
:1022BA000EF0000E046E190E056E000E066E020E6A
:1022CA00DCEC0EF012001CEC09F020EE80F000EEBF
:1022DA0009F01F0EDBCFEBFFE806FCE255EC11F02C
:1022EA00649012008B0E016E0F0E026E000E046EC9
:1022FA00000E036EFBEC10F01200F28AF294C50E87
:10230A00D56E000ED76E830ED66E1200010EC26E07
:10231A000B0EC16E010EC06E12000A0A000A000AF4
:03232A00000A00A6
:02232E0012009B
:020000040020DA
:08000000FFFFFFFFFFFFFFFF00
:020000040030CA
:0E000000FF021F1EFF8185FF0FC00FE00F40A3
:00000001FF
