:020000040000FA
:0400000007EF00F016
:0A0008007182C5ED0FF024EF1AF02D
:100600000001000A006400E8031027010010000048
:100610000100102530325820253032582025303244
:100620005820253032582020202020004355525297
:10063000454E54204C56313A202564252520200073
:1006400043555252454E54204C56323A202564258B
:10065000252020004C565F4D494E5F313A202564DD
:100660002525202020004C565F4D494E5F323A2010
:1006700025642525202020003031323334353637AB
:100680003839414243444546004D4F444255533A60
:10069000202020202020202020004F50455241546F
:1006A000494F4E204D4F44453A20004D414E554153
:1006B0004C202020202020202020004155544F4D48
:1006C000415449432020202020200000130E226E98
:1006D000000E236EE1EF05F0250E2C18D8B473EF51
:1006E00003F075EF03F07FEF03F00FC0D9FF10C0E8
:1006F000DAFF2CC0DFFF0F4A102AE1EF05F0000EF1
:100700002B6E000E2A6E000E296E8AEF03F02984EC
:10071000114A122A11C0F6FF12C0F7FF0800F55067
:10072000300AD8B487EF03F096EF03F011C0F6FF5C
:1007300012C0F7FF0800F550D2EC1AF0D8A0A3EFD2
:1007400003F0A5EF03F035EF04F0000E2B6E000E62
:100750002A6E2AC003F02BC004F0000E066E0A0EAB
:10076000056E70EC1BF003C02AF004C02BF0D00E15
:100770001B6EFF0E1C6E11C0F6FF12C0F7FF0800C3
:10078000F5501D6E1E6A1B501D261C501E221D504A
:100790002A261E502B22114A122A11C0F6FF12C01F
:1007A000F7FF0800F550D2EC1AF0D8B0DAEF03F0FA
:1007B000DCEF03F0A9EF03F035EF04F0298E55EFDD
:1007C00004F02B5009E1020E2A5CD8A0EAEF03F0F6
:1007D000ECEF03F0F1EF03F02A06D8A02B06FFEFB1
:1007E00003F0000E2B6E000E2A6EFFEF03F00FC019
:1007F000D9FF10C0DAFF200EDF6E0F4A102A2A063A
:10080000D8A02B062A2806E12B28D8A40AEF04F04A
:100810000CEF04F0F7EF03F01CEF04F01FC0D9FF5A
:1008200020C0DAFF0FC0E1FF10C0E2FFDFCFE7FF1B
:100830001F4A202A0F4A102A2406D8A02506242859
:1008400006E12528D8A427EF04F029EF04F00EEFE5
:1008500004F0E1EF05F02C0E1F6E000E206E000E6E
:10086000256E010E246EE1EF03F011C0F6FF12C0F9
:10087000F7FF114A122A0800F5CF2CF02C50000A7D
:10088000D8B4F2EF05F0580AD8B4DEEF03F03C0A12
:10089000D8B455EF04F00D0AD8B455EF04F0110A9E
:1008A000D8B4DEEF03F02BEF04F029BE5AEF04F0CA
:1008B0005CEF04F077EF04F022C0D9FF23C0DAFF29
:1008C000DECF27F0DDCF28F0020E2226000E2322F5
:1008D00028BE6FEF04F06DEF04F0D3EF04F0030EC9
:1008E0002912276C281ED8B0282AD3EF04F022C082
:1008F000D9FF23C0DAFFDECF27F0DDCF28F0020ECC
:100900002226000E2322D3EF04F0010E2C6E050EDA
:100910002C18D8A48EEF04F090EF04F092EF04F0BE
:10092000DFEF04F02C50020D010EF324F66E060EDC
:10093000F420F76E0900F550275C0900F55028589F
:10094000D8B0A5EF04F0A7EF04F0A9EF04F0DFEFB3
:1009500004F02C2A87EF04F0010E2C6E040E2C18E4
:10096000D8A4B5EF04F0B7EF04F0B9EF04F0DFEF6F
:1009700004F02C50020D0B0EF324F66E060EF4203C
:10098000F76E0900F550275C0900F5502858D8B0DB
:10099000CCEF04F0CEEF04F0D0EF04F0DFEF04F082
:1009A0002C2AAEEF04F02950800B000AD8B485EF52
:1009B00004F0800AD8B4ACEF04F0DFEF04F02A5062
:1009C0002B10D8B4E6EF04F0E8EF04F0F6EF04F0F3
:1009D00029C01BF0030E1B16D8B4F1EF04F0F3EF9F
:1009E00004F0F6EF04F02A06D8A02B062C501B6E5C
:1009F0001C6A2A501B5C1C50800A1D6E2B50800AFA
:100A00001D58D8B006EF05F008EF05F00EEF05F021
:100A10002C502A5E000E2B5A12EF05F0000E2B6EA2
:100A2000000E2A6E29A417EF05F019EF05F04BEF21
:100A300005F029C01BF0030E1B16D8B422EF05F0F9
:100A400024EF05F02CEF05F00FC0D9FF10C0DAFF3E
:100A50002D0EDF6E0F4A102A2A502B10D8B433EF18
:100A600005F035EF05F07BEF05F00FC0D9FF10C0A2
:100A7000DAFF300EDF6E0F4A102A2A06D8A02B06A6
:100A80002A502B10D8A447EF05F049EF05F035EFB9
:100A900005F07BEF05F02A502B10D8B452EF05F08B
:100AA00054EF05F068EF05F00FC0D9FF10C0DAFF72
:100AB000200EDF6E0F4A102A2A06D8A02B062A50D5
:100AC0002B10D8A466EF05F068EF05F054EF05F0A1
:100AD00029C01BF0030E1B16D8B471EF05F073EF9D
:100AE00005F07BEF05F00FC0D9FF10C0DAFF2D0E27
:100AF000DF6E0F4A102A2CC026F0D8EF05F02650E2
:100B0000020D010EF324F66E060EF420F76E0900B6
:100B1000F5CF05F00A00F5CF06F027C003F028C096
:100B200004F050EC19F003C00AF004C00BF0000E02
:100B30000D6E0A0E0C6EC1EC19F00A50300F2C6EBF
:100B4000D0EF05F027C003F028C004F02650020DB6
:100B50000B0EF324F66E060EF420F76E0900F5CFA7
:100B600005F00A00F5CF06F050EC19F003500F0B1A
:100B7000216E780E2124F66EF76A060EF722080021
:100B8000F5CF2CF0D0EF05F02950800B000AD8B437
:100B90007FEF05F0800AD8B4A2EF05F0D0EF05F0A2
:100BA0000FC0D9FF10C0DAFF2CC0DFFF0F4A102A98
:100BB00026062628D8A4DFEF05F0E1EF05F0C4EF04
:100BC00005F011C0F6FF12C0F7FF114A122A080003
:100BD000F5CF2CF02C50D8A4F0EF05F0F2EF05F093
:100BE0006CEF03F00FC0D9FF10C0DAFF000EDF6E0C
:100BF00012000650800B0F6E06500624116E05AED3
:100C000004EF06F006EF06F007EF06F01180115032
:100C1000D8B40DEF06F00FEF06F024EF06F0112820
:100C2000D8A415EF06F017EF06F01FEF06F0000E40
:100C3000036E000E046E000E056E000E066E058E2D
:100C4000000E066E2CEF06F0000E036E000E046E12
:100C5000000E056E000E066E0A50800B106E0F50CF
:100C60001018D8B436EF06F038EF06F039EF06F07A
:100C70000F8C0A500A24106E09AE41EF06F043EFC4
:100C800006F044EF06F010801050D8B44AEF06F09A
:100C90004CEF06F061EF06F01028D8A452EF06F0F2
:100CA00054EF06F05CEF06F0000E076E000E086EC3
:100CB000000E096E000E0A6E098E000E0A6E69EFB4
:100CC00006F0000E076E000E086E000E096E000E94
:100CD0000A6E1150105CD8B070EF06F072EF06F09B
:100CE00099EF06F00FAC77EF06F079EF06F07BEFA7
:100CF00006F0800E0F1A11C012F010C011F012C0D1
:100D000010F003C012F007C003F012C007F004C0D7
:100D100012F008C004F012C008F005C012F009C0BB
:100D200005F012C009F006C012F00AC006F012C0A9
:100D30000AF0000E126E115010C00BF00C6A0B5E20
:100D4000000E0C5A0CBEAEEF06F00C5009E11A0E64
:100D50000B5CD8A0AEEF06F0B0EF06F0E7EF06F0C0
:100D60000350041005100610D8A4B9EF06F0BCEF2C
:100D700006F0010EBDEF06F0000E126E000E036EBF
:100D8000000E046E000E056E000E066E10C011F00F
:100D9000F0EF06F012A0CFEF06F0D1EF06F0D7EF9C
:100DA00006F0D89012300109126ED9EF06F0D890F3
:100DB000123203A0DEEF06F0E0EF06F0E1EF06F0FE
:100DC000128E06340632053204320332112A1050D4
:100DD000115CD8A0EEEF06F0F0EF06F0CAEF06F0D7
:100DE0000FBCF5EF06F0F7EF06F037EF07F0115004
:100DF000D8A4FDEF06F0FFEF06F009EF07F0000EB4
:100E0000036E000E046E000E056E000E066E58EFA7
:100E100008F00750032608500422095005220A5002
:100E2000062206A016EF07F018EF07F0C4EF07F050
:100E300012A01DEF07F01FEF07F025EF07F0D89085
:100E400012300109126E27EF07F0D890123203A07A
:100E50002CEF07F02EEF07F02FEF07F0128E06347D
:100E60000632053204320332112AC4EF07F007506C
:100E7000035C08500458095005580650800A0B6E50
:100E80000A50800A0B58D8B048EF07F04AEF07F035
:100E900075EF07F00350075C0B6E045008580C6E9A
:100EA000055009580D6E06500A580E6EFF0E0B24A1
:100EB000036EFF0E0C20046EFF0E0D20056EFF0E5C
:100EC0000E20066E800E0F1A126C1250D8A46BEF13
:100ED00007F06DEF07F07DEF07F0010E0326000E1F
:100EE0000422052206227DEF07F00750035E08501A
:100EF000045A0950055A0A50065A035004100510A6
:100F00000610D8A486EF07F088EF07F0BDEF07F0D2
:100F10001250D8A48EEF07F090EF07F0BDEF07F066
:100F2000000E036E000E046E000E056E000E066EBF
:100F300058EF08F0D890033604360536063612AE60
:100F4000A4EF07F0A6EF07F0A7EF07F0038012A0C9
:100F5000ACEF07F0AEEF07F0B2EF07F0D880123633
:100F6000B4EF07F0D89012361150D8B4BAEF07F0AA
:100F7000BCEF07F0BDEF07F0110605AEC2EF07F0BA
:100F8000C4EF07F09AEF07F0000E106E12AECBEF31
:100F900007F0CDEF07F0E5EF07F012C00BF07F0E82
:100FA0000B16D8B4D6EF07F0D8EF07F0DCEF07F058
:100FB000010E106EE5EF07F003A0E1EF07F0E3EF9D
:100FC00007F0E5EF07F0D8EF07F01050D8B4EBEFDB
:100FD00007F0EDEF07F018EF08F0010E0326000E02
:100FE00004220522062206A0F8EF07F0FAEF07F028
:100FF00018EF08F003C00BF004C00CF005C00DF0B2
:1010000006C00EF00E340E320D320C320B320BC015
:1010100003F00CC004F00DC005F00EC006F011285E
:10102000D8B415EF08F017EF08F018EF08F0112A00
:101030001128D8B41EEF08F020EF08F028EF08F0D0
:101040001150D8A426EF08F028EF08F03AEF08F086
:10105000000E036E000E046E000E056E000E066E8E
:101060001150D8A436EF08F038EF08F03AEF08F046
:10107000000E0F6E11A03FEF08F041EF08F044EFB3
:1010800008F0058E45EF08F0059ED8901130066EE9
:101090000FAE4DEF08F04FEF08F050EF08F0068E5E
:1010A00003C003F004C004F005C005F006C006F05C
:1010B00012001450800B216E14501424286E13AEAD
:1010C00064EF08F066EF08F067EF08F0288028501A
:1010D000D8B46DEF08F06FEF08F084EF08F028281F
:1010E000D8A475EF08F077EF08F07FEF08F0000E56
:1010F000116E000E126E000E136E000E146E138E23
:10110000000E146E8CEF08F0000E116E000E126EC1
:10111000000E136E000E146E1850800B211A18501A
:101120001824296E17AE97EF08F099EF08F09AEFA0
:1011300008F029802950D8B4A0EF08F0A2EF08F0F9
:10114000B7EF08F02928D8A4A8EF08F0AAEF08F014
:10115000B2EF08F0000E156E000E166E000E176E40
:10116000000E186E178E000E186EBFEF08F0000EFE
:10117000156E000E166E000E176E000E186E1550CE
:10118000161017101810D8A4C8EF08F0CAEF08F00E
:10119000E2EF08F0000E116E000E126E000E136EDC
:1011A000000E146E800E13127F0E141221501412B2
:1011B00011C011F012C012F013C013F014C014F0DB
:1011C00025EF0AF02850D8A4E8EF08F0EAEF08F07D
:1011D000F4EF08F0000E116E000E126E000E136E8A
:1011E000000E146E25EF0AF0295028C019F01A6A73
:1011F000195E000E1A5A7F0E1924226E000E1A2054
:10120000236E11C01DF012C01EF013C01FF014C0D9
:1012100020F0000E116E000E126E000E136E000E06
:10122000146E000E246E000E256E000E266E000E4B
:10123000276E000E296E55EF09F02950D8B423EF20
:1012400009F025EF09F03CEF09F0D8901D361E3665
:101250001F362036D890113612361336143627AE84
:1012600034EF09F036EF09F037EF09F01180D8902C
:10127000243625362636273615501D5C16501E5846
:1012800017501F5818502058D8A049EF09F04BEFBD
:1012900009F054EF09F0278C15501D5E16501E5AA8
:1012A00017501F5A1850205A292A190E29645BEF2B
:1012B00009F05DEF09F01DEF09F01D501E101F1021
:1012C0002010D8B466EF09F068EF09F080EF09F05C
:1012D000248080EF09F0D890113612361336143678
:1012E00027AE75EF09F077EF09F078EF09F011807C
:1012F000D89024362536263627362206D8A023064F
:1013000013AE85EF09F087EF09F06BEF09F0000EDF
:10131000296E27AE8EEF09F090EF09F0B4EF09F0D7
:10132000FF0E2414196EFF0E25141A6EFF0E2614DC
:101330001B6E7F0E27141C6E19501A101B101C10E8
:10134000D8B4A5EF09F0A7EF09F0ABEF09F0010E53
:10135000296EB4EF09F011A0B0EF09F0B2EF09F077
:10136000B4EF09F0A7EF09F02950D8B4BAEF09F0AB
:10137000BCEF09F0E0EF09F0010E1126000E122279
:101380001322142214A0C7EF09F0C9EF09F0E0EF0F
:1013900009F011C019F012C01AF013C01BF014C0EC
:1013A0001CF01C341C321B321A32193219C011F0D5
:1013B0001AC012F01BC013F01CC014F0224A232ADA
:1013C00023BEEBEF09F0235008E12228D8A0EBEF71
:1013D00009F0EDEF09F0F8EF09F0000E236E226836
:1013E000000E116E000E126E000E136E000E146EC3
:1013F00023BE05EF0AF0235006E12204D8B003EF24
:101400000AF005EF0AF013EF0AF0000E236E000E4B
:10141000226E000E116E000E126E000E136E000E84
:10142000146E000E216E22C028F028A01AEF0AF0D8
:101430001CEF0AF01FEF0AF0138E20EF0AF0139E44
:10144000D8902830146ED6EF08F01200000E1F6EF0
:10145000000E1E6E000E1C6E000E1B6E000E206E27
:10146000000E1D6E000E226E000E216E02C119F0DC
:101470001A6A19501A6E196A01010351191204C12E
:101480001EF01F6A1E501F6E1E6A05511E12010EAD
:101490000001806F020E816F1EC015F01FC016F094
:1014A000D89016321532D89016321532D89016329E
:1014B00015321550206E1E50070B1D6E1D50D8B4EE
:1014C00064EF0AF066EF0AF067EF0AF0202A20C006
:1014D00082F019C021F0030E256E20C023F02350A6
:1014E000D8A475EF0AF077EF0AF079EF0AF0F5EF7C
:1014F0000AF0010E23647FEF0AF081EF0AF0B9EFE2
:101500000AF0000E246E000E2124D96EDA6A020E53
:10151000DA22DF50D8B48FEF0AF091EF0AF095EF9E
:101520000AF0010E226E97EF0AF0000E226E24C020
:1015300015F022C016F0152AA0EF0AF0D890163642
:10154000152E9EEF0AF0800E2524D96EDA6A000E61
:10155000DA221650DF1A212A242A080E2418D8A4C9
:10156000B4EF0AF0B6EF0AF083EF0AF0252AF2EFA3
:101570000AF0000E246EE7EF0AF0000E2124D96E67
:10158000DA6A020EDA22DF50D8B4C9EF0AF0CBEFE4
:101590000AF0CFEF0AF0010E226ED1EF0AF0000E32
:1015A000226E24C015F022C016F0152ADAEF0AF0D8
:1015B000D8901636152ED8EF0AF0800E2524D96E55
:1015C000DA6A000EDA221650DF1A212A242A1D5068
:1015D0002418D8A4EEEF0AF0F0EF0AF0BDEF0AF0FD
:1015E000B6EF0AF023066FEF0AF02550020FF8EC71
:1015F00015F003C01BF004C01CF0800E2524D96E2A
:10160000DA6A000EDA221C50DF6E810E2524D96EB4
:10161000DA6A000EDA221BC0DFFF8A8E000E236E0C
:1016200022EF0BF0ACA217EF0BF019EF0BF012EF5B
:101630000BF0800E2324D96EDA6A000EDA22DF5016
:10164000AD6E232A2350156E166A2550176E186A40
:10165000030E1726000E18221550171807E1165012
:101660001818D8A436EF0BF038EF0BF012EF0BF090
:101670008A9EEBEC1AF01200000E1F6E000E1E6E1A
:10168000000E1C6E000E1B6E000E206E000E1D6EF6
:10169000000E226E000E216E02C119F01A6A195056
:1016A0001A6E196A01010351191204C11EF01F6A52
:1016B0001E501F6E1E6A05511E12010E0001806F22
:1016C000010E816F1EC015F01FC016F0D8901632A3
:1016D0001532D89016321532D89016321532155070
:1016E000206E1E50070B1D6E1D50D8B47AEF0BF004
:1016F0007CEF0BF07DEF0BF0202A20C082F019C0A8
:1017000021F0030E256E20C023F02350D8A48BEFC8
:101710000BF08DEF0BF08FEF0BF00BEF0CF0010ED9
:10172000236495EF0BF097EF0BF0CFEF0BF0000E6B
:10173000246E000E2124D96EDA6A020EDA22DF50FE
:10174000D8B4A5EF0BF0A7EF0BF0ABEF0BF0010E49
:10175000226EADEF0BF0000E226E24C015F022C0F9
:1017600016F0152AB6EF0BF0D8901636152EB4EFFA
:101770000BF0800E2524D96EDA6A000EDA2216509C
:10178000DF1A212A242A080E2418D8A4CAEF0BF045
:10179000CCEF0BF099EF0BF0252A08EF0CF0000EC0
:1017A000246EFDEF0BF0000E2124D96EDA6A020ED2
:1017B000DA22DF50D8B4DFEF0BF0E1EF0BF0E5EF0A
:1017C0000BF0010E226EE7EF0BF0000E226E24C02C
:1017D00015F022C016F0152AF0EF0BF0D89016364F
:1017E000152EEEEF0BF0800E2524D96EDA6A000E6E
:1017F000DA221650DF1A212A242A1D502418D8A4D0
:1018000004EF0CF006EF0CF0D3EF0BF0CCEF0BF085
:10181000230685EF0BF02550020FF8EC15F003C0FE
:101820001BF004C01CF0800E2524D96EDA6A000E6D
:10183000DA221C50DF6E810E2524D96EDA6A000E82
:10184000DA221BC0DFFF8A8E000E236E38EF0CF009
:10185000ACA22DEF0CF02FEF0CF028EF0CF0800E67
:101860002324D96EDA6A000EDA22DF50AD6E232A05
:101870002350156E166A2550176E186A030E172628
:10188000000E18221550171807E116501818D8A482
:101890004CEF0CF04EEF0CF028EF0CF08A9EEBECC6
:1018A0001AF01200000E1C6E000E1B6E030E1F6E4F
:1018B000000E186E000E176E000E1E6E000E1D6ECE
:1018C00002C119F01A6A19501A6E196A01010351FE
:1018D000191204C11BF01C6A1B501C6E1B6A0551B7
:1018E0001B12010E0001806F030E816F1B501B2421
:1018F000826F19C01DF01AC01EF0DDEF0CF0D890F9
:101900001D34D96E1E34DA6E7D0ED926010EDA2210
:10191000000EDE5C010EDE58D8A091EF0CF093EFC4
:101920000CF0C0EF0CF0800E1F24D96EDA6A000EA6
:10193000DA22D8901D34E16E1E34E26E7D0EE1266F
:10194000010EE222E6CF15F0E5CF16F016C015F035
:10195000166A1550DF6E1F2AD8901D34D96E1E34BA
:10196000DA6E7D0ED926010EDA22800E1F24E16E7A
:10197000E26A000EE222DFCFE7FF1F2ADBEF0CF066
:10198000800E1F24D96EDA6A000EDA22000EDF6E96
:101990001F2AD8901D34D96E1E34DA6E7D0ED926DA
:1019A000010EDA22800E1F24E16EE26A000EE222AE
:1019B000DFCFE7FF1F2A1D4A1E2A1B501924156E70
:1019C0001C501A20166E15501D5C16501E58D8A0BB
:1019D000ECEF0CF0EEEF0CF07FEF0CF01F50020F6D
:1019E000F8EC15F003C017F004C018F0800E1F24A7
:1019F000D96EDA6A000EDA221850DF6E1F2A800EC6
:101A00001F24D96EDA6A000EDA2217C0DFFF020E39
:101A10001F268A8E000E1E6E000E1D6E21EF0DF029
:101A2000ACA215EF0DF017EF0DF010EF0DF0800EDA
:101A30001D24D96E000E1E20DA6EDF50AD6E1D4AD9
:101A40001E2A1F50156E166A1D50151807E11E50EC
:101A50001618D8A42EEF0DF030EF0DF010EF0DF0AA
:101A60008A9EEBEC1AF01200000E1C6E000E1B6E2C
:101A7000030E1F6E000E186E000E176E000E1E6E07
:101A8000000E1D6E02C119F01A6A19501A6E196AF9
:101A900001010351191204C11BF01C6A1B501C6E7A
:101AA0001B6A05511B12010E0001806F040E816F2D
:101AB0001B501B24826F19C01DF01AC01EF0BFEF0F
:101AC0000DF0D8901D34D96E1E34DA6E7D0ED926F5
:101AD000010EDA22000EDE5C010EDE58D8A073EF94
:101AE0000DF075EF0DF0A2EF0DF0800E1F24D96EF2
:101AF000DA6A000EDA22D8901D34E16E1E34E26EEE
:101B00007D0EE126010EE222E6CF15F0E5CF16F0BC
:101B100016C015F0166A1550DF6E1F2AD8901D34B6
:101B2000D96E1E34DA6E7D0ED926010EDA22800EB1
:101B30001F24E16EE26A000EE222DFCFE7FF1F2AD8
:101B4000BDEF0DF0800E1F24D96EDA6A000EDA2286
:101B5000000EDF6E1F2AD8901D34D96E1E34DA6E47
:101B60007D0ED926010EDA22800E1F24E16EE26A74
:101B7000000EE222DFCFE7FF1F2A1D4A1E2A1B505C
:101B80001924156E1C501A20166E15501D5C165027
:101B90001E58D8A0CEEF0DF0D0EF0DF061EF0DF094
:101BA0001F50020FF8EC15F003C017F004C018F036
:101BB000800E1F24D96EDA6A000EDA221850DF6E0A
:101BC0001F2A800E1F24D96EDA6A000EDA2217C08F
:101BD000DFFF020E1F268A8E000E1E6E000E1D6E87
:101BE00003EF0EF0ACA2F7EF0DF0F9EF0DF0F2EF0E
:101BF0000DF0800E1D24D96E000E1E20DA6EDF500F
:101C0000AD6E1D4A1E2A1F50156E166A1D501518FE
:101C100007E11E501618D8A410EF0EF012EF0EF0C8
:101C2000F2EF0DF08A9EEBEC1AF012000B6E0B50E7
:101C3000D8B41DEF0EF01FEF0EF041EF0EF006BE10
:101C400026EF0EF024EF0EF041EF0EF003C007F088
:101C500004C008F005C009F006C00AF0071E081EFF
:101C6000091E0A1E072A000E082209220A2207C09E
:101C70000DF008C00EF009C00FF00AC010F049EFD7
:101C80000EF003C00DF004C00EF005C00FF006C04A
:101C900010F00350041005100610D8A452EF0EF0F7
:101CA00054EF0EF05EEF0EF0000E036E000E046EA9
:101CB000000E056E000E066EEFEF0EF0960E0C6E27
:101CC00068EF0EF00C2AD89010320F320E320D321F
:101CD000000E0D14076E000E0E14086E000E0F1489
:101CE000096EFE0E10140A6E0750081009100A1033
:101CF000D8A47DEF0EF07FEF0EF062EF0EF08DEFC7
:101D00000EF00C2A010E0D26000E0E220F221022BC
:101D1000D89010320F320E320D32000E0D14076EB5
:101D2000000E0E14086E000E0F14096EFF0E101434
:101D30000A6E0750081009100A10D8A4A2EF0EF07E
:101D4000A4EF0EF081EF0EF0ACEF0EF00C06D89081
:101D50000D360E360F3610360FBEB1EF0EF0B3EF64
:101D60000EF0BBEF0EF0020E0C60B9EF0EF0BBEF01
:101D70000EF0A6EF0EF00CB0C0EF0EF0C2EF0EF0BA
:101D8000C3EF0EF00F9ED8900C320CC007F0086A1B
:101D9000096A0A6A07C00AF0096A086A076A0750EE
:101DA0000D1208500E1209500F120A5010120B504B
:101DB000D8B4DDEF0EF0DFEF0EF0E7EF0EF006BE69
:101DC000E6EF0EF0E4EF0EF0E7EF0EF0108E0DC030
:101DD00003F00EC004F00FC005F010C006F01200B2
:101DE0005750D8A4F6EF0EF0F8EF0EF02AEF0FF0F0
:101DF000320E0F6E020E106E2C0E116E060E126E4B
:101E000047C003F048C004F049C005F04AC006F0DE
:101E100079EC14F003C013F004C014F066EC03F086
:101E2000420E0F6E020E106E400E116E060E126EF6
:101E30003BC003F03CC004F03DC005F03EC006F0DE
:101E400079EC14F003C013F004C014F066EC03F056
:101E5000C4EF0FF05704D8A430EF0FF032EF0FF0BB
:101E60005AEF0FF0320E036E020E046E9A0E056EDC
:101E7000060E066E7BEC1AF05850D8B442EF0FF005
:101E800044EF0FF04AEF0FF0AB0E2D6E060E2E6EE4
:101E90004EEF0FF0BB0E2D6E060E2E6E420E036E31
:101EA000020E046E2DC005F02EC006F07BEC1AF079
:101EB000C4EF0FF0020E5718D8A461EF0FF063EFD4
:101EC0000FF095EF0FF0320E0F6E020E106E540EE3
:101ED000116E060E126E4BC003F04CC004F04DC0E4
:101EE00005F04EC006F079EC14F003C013F004C006
:101EF00014F066EC03F0420E0F6E020E106E660ECA
:101F0000116E060E126E3FC003F040C004F041C0D7
:101F100005F042C006F079EC14F003C013F004C0E1
:101F200014F066EC03F0C4EF0FF0030E5718D8A4BA
:101F30009CEF0FF09EEF0FF0C4EF0FF0320E036E28
:101F4000020E046E890E056E060E066E7BEC1AF00C
:101F5000420E0F6E020E106E130E116E060E126EF2
:101F60007DC113F07EC114F07FC115F080C116F061
:101F700081C117F082C118F083C119F084C11AF031
:101F800066EC03F0C4EF0FF012000600D9CF01F0A9
:101F9000DACF02F09EA0CFEF0FF0D1EF0FF003EFFA
:101FA00010F09E902C0ECE6ECF0ECF6E554A562A54
:101FB000534A542A640E55185610D8A4E2EF0FF075
:101FC000E4EF0FF0F4EF0FF0000E566E000E556EBA
:101FD000572A040E5718D8A4F0EF0FF0F2EF0FF0C5
:101FE000F4EF0FF0000E576E190E53185410D8A4CA
:101FF000FCEF0FF0FEEF0FF003EF10F0000E546E49
:10200000000E536E70809EAA08EF10F00AEF10F0D9
:1020100053EF10F05D50D8A410EF10F012EF10F055
:102020002CEF10F06750D8A418EF10F01AEF10F052
:102030002CEF10F09EA81FEF10F021EF10F02CEF06
:1020400010F0000E5924D96EDA6A010EDA22AECFF2
:10205000DFFF592A000E5C6E6750D8B432EF10F0E3
:1020600034EF10F052EF10F092EC1BF09EA83BEF13
:1020700010F03DEF10F052EF10F0000E5924D96E21
:10208000DA6A010EDA22AECFDFFF592A000E676E40
:10209000000E5D6E000E5B6E000E5A6E000E5C6EE2
:1020A00089EF10F09E9AF2A458EF10F05AEF10F05A
:1020B00089EF10F0CAEC1BF05C2A040E5C6463EF3D
:1020C00010F065EF10F088EF10F0010E5D6E010E5C
:1020D000676E59C05BF0010E5A6E5BC059F07AEF23
:1020E00010F0000E5924D96EDA6A010EDA22000EC1
:1020F000DF6E592A7D0E5918D8A481EF10F083EFB6
:1021000010F071EF10F0000E596ED59E000E5C6E4F
:10211000F29402C0DAFF01C0D9FF71921100056E7E
:1021200084928484036A05AE01D0032A010E03164B
:1021300003320332835003187F0B0318836E05C0EC
:1021400003F0060E046ED8900332042EA3EF10F0B5
:10215000010E0316033A0346034683500318BF0BD0
:102160000318836E05C003F0050E046ED890033289
:10217000042EB6EF10F0010E0316033A0346835007
:102180000318DF0B0318836E05C003F0033A0F0E2C
:102190000316010E0316033A83500318EF0B0318BE
:1021A000836E030EE82EFED700F08482040EE82E24
:1021B000FED7849205C003F0D8900332D890033242
:1021C000D8900332010E03160332033283500318F2
:1021D0007F0B0318836E05C003F0D8900332D890AC
:1021E0000332010E0316033A0346034683500318D5
:1021F000BF0B0318836E05C003F0D8900332010EA5
:102200000316033A034683500318DF0B0318836E4B
:1022100005C003F0010E0316033A83500318EF0BB9
:102220000318836E030EE82EFED700F08482040E9E
:10223000E82EFED78492040EE82EFED7120E036E0F
:10224000DA0EE82EFED7032EFCD700D012000E685F
:102250000F68000E0B6E000E0A6E000E0D6E000E63
:102260000C6E000E116E000E106E66EF11F0000E77
:102270001024D96E010E1120DA6EDF50036E035068
:102280000E1A000E0D6E080E0C6E0EA04AEF11F025
:102290004CEF11F055EF11F0D8900F320E32010EC5
:1022A0000E1AA00E0F1A58EF11F0D8900F320E32FE
:1022B0000C06D8A00D060C500D10D8A462EF11F03A
:1022C00064EF11F045EF11F0104A112AFE0E036E73
:1022D000FF0E046E5B50056E066A0350052604501F
:1022E00006220550105C1150800A076E0650800AC5
:1022F0000758D8A07EEF11F080EF11F037EF11F002
:102300000E50086E096A0EC003F00FC004F004C03E
:1023100003F0046A03500A6E0B6A000E1024D96E93
:10232000010E1120DA6EDF50036E046A08500318A4
:1023300007E109500418D8A4A0EF11F0A2EF11F0A2
:10234000BAEF11F0010E1024D96E010E1120DA6ED1
:10235000DF50036E046A0A50031807E10B5004189B
:10236000D8A4B5EF11F0B7EF11F0BAEF11F0010EEC
:10237000BBEF11F0000E1200056E84928494036A84
:1023800005AE01D0032A010E031603320332835037
:1023900003187F0B0318836E05C003F0060E046E4E
:1023A000D8900332042ED0EF11F0010E0316033A39
:1023B0000346034683500318BF0B0318836E05C002
:1023C00003F0050E046ED8900332042EE3EF11F0F3
:1023D000010E0316033A034683500318DF0B03185C
:1023E000836E05C003F0033A0F0E0316010E0316A9
:1023F000033A83500318EF0B0318836E030EE82E85
:10240000FED700F08482040EE82EFED7849205C029
:1024100003F0D8900332D8900332D8900332010EE3
:10242000031603320332835003187F0B0318836EA5
:1024300005C003F0D8900332D8900332010E031682
:10244000033A0346034683500318BF0B0318836EF9
:1024500005C003F0D8900332010E0316033A034679
:1024600083500318DF0B0318836E05C003F0010EC1
:102470000316033A83500318EF0B0318836E030E01
:10248000E82EFED700F08482040EE82EFED7849258
:10249000120E036EDA0EE82EFED7032EFCD700D004
:1024A0001200000E186E000E176E000E226E000E47
:1024B000216E000E1E6E000E1D6E000E1A6E000EB6
:1024C000196E000E1C6E000E1B6E000E246E000EA8
:1024D000236E000E206E000E1F6E02C121F0226AD4
:1024E0002150226E216A01010351211203C115F00E
:1024F000166A02C117F0186A04C11DF01E6A1D5049
:102500001E6E1D6A05511D1205C119F01A6A04C11B
:102510001BF01C6A1D501E10D8B491EF12F093EFFF
:1025200012F09DEF12F0000E2124D96E020E22202F
:10253000DA6EFF0EDF6EA5EF12F0000E2124D96EC9
:10254000020E2220DA6E000EDF6E010E0001806F97
:10255000050E816F15C083F017C082F01BC084F098
:1025600019C085F0080EF8EC15F003C01FF004C088
:1025700020F020500001866F1FC087F08A8E000E69
:10258000246E000E236EACA2C8EF12F0CAEF12F058
:10259000C3EF12F0800E2324D96E000E2420DA6ED1
:1025A000DF50AD6E234A242A090E23182410D8A424
:1025B000DCEF12F0DEEF12F0C3EF12F08A9EEBECCC
:1025C0001AF01200959E959C959A959896949692DD
:1025D000839E839C839A839884928494120E066EC1
:1025E000DA0EE82EFED7062EFCD700D0120E066EAD
:1025F000DA0EE82EFED7062EFCD700D0120E066E9D
:10260000DA0EE82EFED7062EFCD700D0120E066E8C
:10261000DA0EE82EFED7062EFCD700D0120E066E7C
:10262000DA0EE82EFED7062EFCD700D0120E066E6C
:10263000DA0EE82EFED7062EFCD700D0010E076E6C
:10264000839E839C838A838884928494839E839CC4
:10265000838A838884828494040EE82EFED7839E26
:10266000839C838A838884928494120E066EDA0E89
:10267000E82EFED7062EFCD700D0072A030E0764EB
:1026800044EF13F046EF13F020EF13F0839E839C8A
:10269000838A839884928494839E839C838A83987C
:1026A00084828494040EE82EFED7839E839C838AC2
:1026B000839884928494120E066EDA0EE82EFED76A
:1026C000062EFCD700D0280EBCEC11F0100EBCEC8E
:1026D00011F0010EBCEC11F00F0EBCEC11F0120069
:1026E0003BC013F03CC014F03DC015F03EC016F0E6
:1026F00043C017F044C018F045C019F046C01AF0A6
:10270000FCEC14F0D8B087EF13F08AEF13F0010E51
:102710008BEF13F0000E1F6E4BC013F04CC014F083
:102720004DC015F04EC016F047C017F048C018F065
:1027300049C019F04AC01AF0FCEC14F0D8B0A3EF6D
:1027400013F0A5EF13F0CAEF13F03BC013F03CC039
:1027500014F03DC015F03EC016F03FC017F040C069
:1027600018F041C019F042C01AF0FCEC14F0D8B0D7
:10277000BCEF13F0BEEF13F0CAEF13F08B0E036E35
:102780000F0E046E000E066E000E056E1BEC1BF0A5
:10279000F5EF13F04BC013F04CC014F04DC015F022
:1027A0004EC016F047C017F048C018F049C019F0E5
:1027B0004AC01AF0FCEC14F0D8B0E1EF13F0E3EFEC
:1027C00013F0EBEF13F01F50D8B4E9EF13F0EBEF79
:1027D00013F0F5EF13F08B0E036E0F0E046E000E68
:1027E000066E000E056EB6EC1AF01200000E186EA2
:1027F000000E176E000E1E6E000E1D6E000E206E77
:10280000000E1F6E000E1A6E000E196E000E1C6E6A
:10281000000E1B6E000E226E000E216E000E246E46
:10282000000E236E02C11DF01E6A1D501E6E1D6A31
:10283000010103511D1203C115F0166A02C117F000
:10284000186A04C11FF0206A1F50206E1F6A0551CC
:102850001F1205C119F01A6A04C11BF01C6AD89036
:102860001D34D96E1E34DA6E7D0ED926010EDA22A1
:102870001FC0DEFF20C0DDFF010E0001806F060ECD
:10288000816F15C083F017C082F01BC084F019C09F
:1028900085F0080EF8EC15F003C021F004C022F01A
:1028A00022500001866F21C087F08A8E000E246EB0
:1028B000000E236EACA25FEF14F061EF14F05AEF3C
:1028C00014F0800E2324D96E000E2420DA6EDF501F
:1028D000AD6E234A242A090E23182410D8A473EFBE
:1028E00014F075EF14F05AEF14F08A9EEBEC1AF026
:1028F0001200053406340C6E0C50D8A482EF14F08C
:1029000084EF14F08EEF14F0000E036E000E046ED0
:10291000000E056E000E066EFBEF14F003C007F00C
:1029200004C008F005C009F006C00AF0200E9EEFB2
:1029300014F0D8900A32093208320732E82E99EFA3
:1029400014F007500B6E058EFF0E0316FF0E0416D3
:10295000FF0E0516000E0616960E0C5E0CBEB5EFA9
:1029600014F0B3EF14F0CBEF14F00C50800A970F73
:10297000D8B0BDEF14F0BFEF14F0C1EF14F084EF46
:1029800014F0D89006320532043203320C3EC1EF07
:1029900014F0E3EF14F01F0E0C64D1EF14F0D3EF3A
:1029A00014F0DBEF14F084EF14F0D8900336043603
:1029B000053606360C060C50D8A4E1EF14F0E3EF10
:1029C00014F0D5EF14F00B50D8B4E9EF14F0EBEF9E
:1029D00014F0F3EF14F0061E051E041E036C000E27
:1029E00004220522062203C003F004C004F005C03F
:1029F00005F006C006F01200000E13141B6E000E48
:102A000014141C6E800E15141D6E7F0E16141E6E8F
:102A10001B501C101D101E10D8A411EF15F013EF41
:102A200015F01BEF15F0000E136E000E146E000E65
:102A3000156E000E166E000E17141B6E000E181485
:102A40001C6E800E19141D6E7F0E1A141E6E1B5004
:102A50001C101D101E10D8A430EF15F032EF15F029
:102A60003AEF15F0000E176E000E186E000E196E7C
:102A7000000E1A6E16AE3FEF15F041EF15F04AEF5B
:102A800015F0136C141ED8B0142A151ED8B0152AD0
:102A9000800E16561AAE4FEF15F051EF15F05AEFA3
:102AA00015F0176C181ED8B0182A191ED8B0192A9C
:102AB000800E1A56000E131A000E141A000E151A64
:102AC000800E161A000E171A000E181A000E191A88
:102AD000800E1A1A1750135C1850145819501558B4
:102AE0001A501658D8B077EF15F079EF15F07CEF43
:102AF00015F0D8907DEF15F0D880120054EC1AF044
:102B0000B2EC1BF0E2EC12F00C0EBCEC11F0F3ECAA
:102B100019F08AEC19F0BFEC1BF004005A50D8B43D
:102B200094EF15F096EF15F09AEF15F070EC16F0A3
:102B300045EC18F099EC1AF0EAEC17F081CF2FF081
:102B4000306A000E326E000E316E640E336E000E6F
:102B5000346E6E0E356E000E366E9E0E376E310E72
:102B6000386ED4EC16F05850D8A4B9EF15F0BBEF7E
:102B700015F0BFEF15F070EC13F0C1EF15F033EC6A
:102B80001BF081CF2FF0306A000E326E030E316ED3
:102B9000600E336E000E346E6A0E356E000E366EA9
:102BA0001C0E376E2F0E386ED4EC16F081CF2FF03E
:102BB000306A000E326E040E316E5E0E336E000E01
:102BC000346E680E356E000E366E640E376E2E0E45
:102BD000386ED4EC16F070A0F0EF15F0F2EF15F0AF
:102BE0008DEF15F083EC1BF08DEF15F007EF00F083
:102BF0000A6E13681468000E0C6E000E0B6E000E49
:102C0000126E000E116E000E106E000E0F6E38EF79
:102C100016F0800E0F24D96E000E1020DA6EDF50F1
:102C2000056E0550131A000E126E080E116E13A0D9
:102C30001CEF16F01EEF16F027EF16F0D8901432A6
:102C40001332010E131AA00E141A2AEF16F0D890A0
:102C5000143213321106D8A0120611501210D8A443
:102C600034EF16F036EF16F017EF16F00F4A102A71
:102C7000FE0E056EFF0E066E0A50076E086A0550BE
:102C800007260650082207500F5C1050800A096E74
:102C90000850800A0958D8A050EF16F052EF16F0ED
:102CA00009EF16F01350066E056A05C00DF006C058
:102CB0000EF013C005F014C006F006C005F0066A59
:102CC00005500B6E0C6A0B500D120C500E120DC0FD
:102CD00013F00EC014F013C003F014C004F012007F
:102CE00001010005D8A477EF16F079EF16F0D1EFC7
:102CF00016F027EC11F00009D8B481EF16F083EF3D
:102D000016F0D1EF16F001010105D8A48AEF16F0F4
:102D10008CEF16F090EF16F03CEC0BF0D1EF16F0C4
:102D2000020E0119D8A497EF16F099EF16F09DEF57
:102D300016F026EC0AF0D1EF16F0030E0119D8A414
:102D4000A4EF16F0A6EF16F0AAEF16F052EC0CF076
:102D5000D1EF16F0040E0119D8A4B1EF16F0B3EFBD
:102D600016F0B7EF16F034EC0DF0D1EF16F0050EBB
:102D70000119D8A4BEEF16F0C0EF16F0C4EF16F09C
:102D800051EC12F0D1EF16F0060E0119D8A4CBEFDA
:102D900016F0CDEF16F0D1EF16F0F6EC13F0D1EF00
:102DA00016F0000E5A6E12002FC003F030C004F06F
:102DB00031C005F032C006F049EC1BF0035004109E
:102DC000D8A4E5EF16F0E7EF16F021EF17F033C0C7
:102DD000D9FF34C0DAFFDE50DE10D8A4F2EF16F0CF
:102DE000F4EF16F031EF17F035C0D9FF36C0DAFF37
:102DF000DE50DE10D8B4FFEF16F001EF17F00AEF47
:102E000017F035C0D9FF36C0DAFFDE06000EDD5AF6
:102E100031EF17F033C0D9FF34C0DAFF010EDE6E98
:102E2000000EDD6E02D81FEF17F00500FA6E375066
:102E3000FD6E3850FE6EF850FF6EFA50120031EF02
:102E400017F035C0D9FF36C0DAFF0A0EDE6E000E6D
:102E5000DD6E33C0D9FF34C0DAFF000EDE6E000E27
:102E6000DD6E1200020E576E83EC1BF02C0ECE6E40
:102E7000CF0ECF6EFF0E566E060E556E000E136E01
:102E8000000E146EC80E156E420E166E000E076E02
:102E9000000E086E200E096E410E0A6E3FC003F050
:102EA00040C004F041C005F042C006F0F9EC05F066
:102EB00003C017F004C018F005C019F006C01AF0DE
:102EC000FCEC14F0D8A067EF17F069EF17F085EF6E
:102ED00017F03FC003F040C004F041C005F042C00D
:102EE00006F0000E076E000E086E200E096E410EF1
:102EF0000A6EF9EC05F003C03FF004C040F005C0D5
:102F000041F006C042F08DEF17F0000E3F6E000E4C
:102F1000406E000E416E000E426E1200020E576EA1
:102F200083EC1BF02C0ECE6ECF0ECF6EFF0E566EC6
:102F3000060E556E000E136E000E146EC80E156E42
:102F4000420E166E000E076E000E086E200E096E01
:102F5000410E0A6E4BC003F04CC004F04DC005F0AA
:102F60004EC006F0F9EC05F003C017F004C018F0ED
:102F700005C019F006C01AF0FCEC14F0D8A0C3EF9D
:102F800017F0C5EF17F0E1EF17F04BC003F04CC09E
:102F900004F04DC005F04EC006F0000E076E000EA6
:102FA000086E200E096E410E0A6EF9EC05F003C0A2
:102FB0004BF004C04CF005C04DF006C04EF0E9EFF8
:102FC00017F0000E4B6E000E4C6E000E4D6E000E94
:102FD0004E6E1200000E12EC19F003C02AF004C06D
:102FE0002BF0010E12EC19F003C02CF004C02DF0F0
:102FF0002AC003F02BC004F0000E04BEFF0E056EC5
:10300000066E010E16EC0EF003C011F004C012F0B3
:1030100005C013F006C014F0140E156EAE0E166E39
:10302000230E176E410E186E59EC08F011C047F0D0
:1030300012C048F013C049F014C04AF02CC003F08D
:103040002DC004F0000E04BEFF0E056E066E010ECC
:1030500016EC0EF003C011F004C012F005C013F01E
:1030600006C014F0140E156EAE0E166E230E176EFB
:10307000410E186E59EC08F011C03BF012C03CF044
:1030800013C03DF014C03EF0120001017D057E1119
:10309000D8A44DEF18F04FEF18F05BEF18F08B0E3F
:1030A000036E0F0E046E000E066E000E056E1BEC16
:1030B0001BF065EF18F08B0E036E0F0E046E000E02
:1030C000066E000E056EB6EC1AF07FC158F081C195
:1030D00003F082C104F0056A066A000E16EC0EF0D9
:1030E00003C04BF004C04CF005C04DF006C04EF0DC
:1030F00083C103F084C104F0056A066A000E16EC71
:103100000EF003C03FF004C040F005C041F006C01F
:1031100042F01200096EA1EF18F00650800F0A6EFF
:10312000B4EF18F00650C00F0A6EB4EF18F0065056
:10313000940F0A6EB4EF18F00650D40F0A6EB4EF75
:1031400018F00950010AD8B48DEF18F0030AD8B46A
:1031500092EF18F0010AD8B497EF18F0070AD8B424
:103160009CEF18F0B4EF18F00A50BCEC11F0C2EF6D
:1031700018F007C0D9FF08C0DAFFDF508FEC10F05D
:10318000074A082A07C0D9FF08C0DAFFDF50D8A4D1
:10319000CCEF18F0CEEF18F0B9EF18F012008CB0A9
:1031A000D4EF18F0D7EF18F0010ED8EF18F0000E9A
:1031B000FF0A0C6E8C500C18FE0B0C188C6E5850BD
:1031C000D8A4E5EF18F0E7EF18F0EBEF18F0010ED8
:1031D000586EEDEF18F0000E586E5804D8A4F3EFB7
:1031E00018F0F5EF18F011EF19F082CF03F0046A30
:1031F000000E066E000E056E49EC1BF00304041071
:10320000D8A405EF19F007EF19F011EF19F08B0EA4
:10321000036E0F0E046E000E066E000E056EB6EC09
:103220001AF01200096E21EF19F0010EC26E30EF94
:1032300019F0090EC26E30EF19F0110EC26E30EFA8
:1032400019F00950000AD8B415EF19F0010AD8B4E2
:1032500019EF19F0030AD8B41DEF19F030EF19F087
:10326000C282C2B236EF19F038EF19F031EF19F01F
:10327000C3CF05F0060E066ED8900532062E3CEF41
:1032800019F00550C4CF07F0086AD8900736083601
:10329000D890073608360710036E0850046E1200E7
:1032A000000E086E000E076E05500610D8B45BEFD6
:1032B00019F05DEF19F085EF19F0010E096E65EF59
:1032C00019F0D89005360636092A06AE6AEF19F0CD
:1032D0006CEF19F061EF19F0D890073608360550F9
:1032E000035C06500458D8A078EF19F07AEF19F073
:1032F0007FEF19F00550035E0650045A0780D890FE
:1033000006320532092E6CEF19F007C003F008C031
:1033100004F01200000E046E000E056E000E066E24
:10332000000E076E110E046E040E056E000E066E82
:10333000000E076E060E036ED89007320632053275
:103340000432032E9CEF19F00406000E055A065AAB
:10335000075AB9EC1BF0939E8A9E000EAC6E000ECD
:10336000AB6E949C948EAC98AC9CAC96AC94AB88B1
:10337000AB9C9D8A9D98B89604C0AFFFAC8AAB8E7B
:1033800012000C500D10D8B4C8EF19F0CAEF19F0A4
:10339000EEEF19F0010E0E6ED2EF19F0D8900C3648
:1033A0000D360E2A0DAED7EF19F0D9EF19F0CEEF8A
:1033B00019F00C500A5C0D500B58D8A0E2EF19F030
:1033C000E4EF19F0E8EF19F00C500A5E0D500B5ABB
:1033D000D8900D320C320E2ED9EF19F00AC00AF037
:1033E0000BC00BF01200000E476E000E486E000E70
:1033F000496E000E4A6E000E4B6E000E4C6E000EB3
:103400004D6E000E4E6E000E4F6E000E506EC80ECA
:10341000516E420E526E000E3B6E000E3C6E000E60
:103420003D6E000E3E6E000E3F6E000E406E000EB2
:10343000416E000E426E000E436E000E446EB40EDE
:10344000456E420E466E12008A0EF66E370EF76E0D
:10345000000EF86E00EE66F010EE0AF00900F5CFEF
:10346000EEFFE550E150FAE102EE00F0520EEE6A96
:10347000E806FDE101EE00F0E10EEE6AE806FDE18E
:1034800000EE80F07D0EEE6AE806FDE1706A00EE67
:103490003BF02B0EEE6AE806FDE171907192000E92
:1034A000F86E00017EEF15F0F19E92683F0E936E6C
:1034B000000E946E000E956E000E966E000E806EDD
:1034C000000E896E000E816E000E8A6E000E826EF6
:1034D000000E8B6E000E836E000E8C6E000E846EDE
:1034E000000E8D6EF28CF28ECFEC1BF0A9EC1BF06F
:1034F0000F0EC16E120003C007F004C008F085EF84
:103500001AF0074A082A054A062A05C0F6FF06C02F
:10351000F7FF07C0D9FF08C0DAFF0800F5CFDFFFCB
:10352000DF50D8A496EF1AF098EF1AF081EF1AF056
:10353000120047C003F048C004F049C005F04AC07B
:1035400006F079EC14F003C085F104C086F13BC0AD
:1035500003F03CC004F03DC005F03EC006F079EC3D
:1035600014F003C087F104C088F1120005C007F011
:10357000010E086E000E096E072AC2EF1AF0D890ED
:1035800008360936072EBFEF1AF0081C0A6E091C10
:103590000B6E03C0D9FF04C0DAFF0A50DE160B50D1
:1035A000DD161200056E000E046E3A0E0560DBEFAC
:1035B0001AF0DDEF1AF0E7EF1AF02F0E0564E3EFD3
:1035C0001AF0E5EF1AF0E7EF1AF0010E046E04C0EE
:1035D00003F003301200000E086E800E0824D96E2E
:1035E000DA6A000EDA22000EDF6E082A7C0E08640A
:1035F000FCEF1AF0FEEF1AF0EDEF1AF0B9EC1BF049
:103600008AEC19F0120005C007F0010E086E000EDA
:10361000096E072A0FEF1BF0D89008360936072EDF
:103620000CEF1BF003C0D9FF04C0DAFF0850DE1A0C
:103630000950DD1A120005C007F0010E086E000ED9
:10364000096E072A27EF1BF0D89008360936072E97
:1036500024EF1BF003C0D9FF04C0DAFF0850DE12CC
:103660000950DD12120081CF2FF0306A000E326E49
:10367000010E316E620E336E000E346E6C0E356EBE
:10368000000E366E3C0E376E370E386ED4EC16F0E8
:10369000120005C007F003C008F004C009F0072AB3
:1036A00055EF1BF0D89009320832072E52EF1BF06D
:1036B000010E0814036E046A1200000E066E0B0E53
:1036C000076E000E086E010E8AEC18F0000E066EF2
:1036D0001B0E076E000E086E020E8AEC18F0120028
:1036E00003500502F3CF07F0F4CF08F003500602B1
:1036F000F350082604500502F350082607C003F0D3
:1037000008C004F01200F0EC0EF022EE32F000EEF1
:103710000BF01F0EDBCFEBFFE806FCE25DEC1BF0CD
:1037200070901200D59ED59CD59AD586F50ED76E91
:10373000D70ED66ED58EF294F28A12008B0E036EDF
:103740000F0E046E000E066E000E056E03EC1BF0ED
:1037500012009D809E902C0ECE6ECF0ECF6E210E4D
:10376000CD6E1200010EC26E0B0EC16E010EC06E48
:1037700012004F0EAB16AC9ACF0E9D161200D09EC3
:103780009E9AF294F28CF28E12000A010A000A004C
:103790000A000A00F50ED76ED70ED66E1200120080
:020000040020DA
:08000000FFFFFFFFFFFFFFFF00
:020000040030CA
:0E000000FF021F1EFF8185FF0FC00FE00F40A3
:00000001FF
