:020000040000FA
:100000000A128A11FC2F00308A000408840A820731
:100010000034013400340A34003464340034E834E9
:100020000334103427344C34763431343A342034A9
:10003000253464342534253400344C347634323459
:100040003A34203425346434253425340034F30024
:1000500083120313091173080A128A15DE270A1284
:100060008A118312031389141A30F200F830F10058
:10007000F10B3828F20B3828000083120313891083
:100080000800F4000130FF007F08831203139F056E
:100090007408F20002300310F20DFF3E031D4B28DE
:1000A0000310720DFF007F089F040D30F300FB303A
:1000B000F200F20B5928F30B59285E288312031320
:1000C0001F151F196428652861281E08F100831672
:1000D00003131E08F000080077087804031971283C
:1000E0007228A128FB01FB0A802801300310F70DBC
:1000F000F80DFF3E031D76280130FF007F08FB0747
:10010000F81F83288428752878087A02031D8A2816
:1001100077087902031C8D288E2894287708F90225
:100120007808031CFA03FA0201300310F80CF70CEC
:10013000FF3E031D95280130FB02031DA028A128C6
:1001400084287A08F8007908F7000800F401F5011E
:10015000700871040319AD28AE28E528F601F60AE7
:10016000BC2801300310F00DF10DFF3E031DB22835
:100170000130FF007F08F607F11FBF28C028B12813
:1001800001300310F40DF50DFF3E031DC128710869
:100190007302031DCD2870087202031CD028D128D9
:1001A000D8287008F2027108031CF303F3027414D8
:1001B00001300310F10CF00CFF3E031DD928013073
:1001C000F602031DE428E528C0287508F10074082C
:1001D000F0000800F6007603031DEF28F02813292D
:1001E00074087F3EFF007F08F9007908F5000430AD
:1001F0000310F50CFF3E031DF8287508FF007F086B
:10020000F70079080F39FF007F08F80077080A1215
:100210008A1127200A128A1178080A128A112720C7
:100220000A128A113B2902307606031D1829192962
:100230003B297408BF3EFF007F08F9007908F500EC
:1002400004300310F50CFF3E031D21297508FF0043
:100250007F08F70079080F39FF007F08F80077085A
:100260000A128A1127200A128A1178080A128A11A2
:1002700027200A128A11080000300A128A15DE2788
:100280000A128A1103300A128A1127200A128A11CF
:100290002130F5007630F400F40B4C29F50B4C2995
:1002A000000003300A128A1127200A128A114830EE
:1002B000F5006C30F400F40B5B29F50B5B290000B2
:1002C00003300A128A1127200A128A1102300A12F8
:1002D0008A1127200A128A1102300A128A11272055
:1002E0000A128A1108300A128A1127200A128A116A
:1002F00000300A128A1127200A128A110C300A12C1
:100300008A1127200A128A1100300A128A11272026
:100310000A128A1106300A128A1127200A128A113B
:100320000800F40074080F39FF007F08F200740819
:10033000F039FF007F08F3008312031309157308D7
:10034000F10004300310F10CFF3E031DA2297108D7
:100350000A128A15DE270A128A11831203138914DE
:100360003330F5008230F6000000FF30F507031847
:10037000F60AFF30F6077608803AFF0080307F02E9
:10038000031DC42901307502031CC729C829B429DB
:1003900083120313891072080A128A15DE270A12C3
:1003A0008A118312031389143330F7008230F80066
:1003B0000000FF30F7070318F80AFF30F807780845
:1003C000803AFF0080307F02031DE8290130770268
:1003D000031CEB29EC29D829831203138910080088
:1003E0000310720D730DFF007F08F9007908031DDB
:1003F000FA29FB29042A0030F3000030F200003013
:10040000F1000030F000692A7008F4007108F5006E
:100410007208F6007308F7001F300310F70CF60C93
:10042000F50CF40CFF3E031D0D2A7408FF007F0835
:10043000F800F217FF30F005FF30F105FF30F2054C
:100440000030F3059630F902F91F272A282A422A9C
:100450007908803A973E03182E2A2F2A302AFB2942
:1004600001300310F30CF20CF10CF00CFF3E031DF5
:10047000312A0130FF007F08F907031D402A412A75
:10048000302A592A20307902031C472A482A542A44
:10049000FB290130F4000310F00DF10DF20DF30D06
:1004A000F40B4B2A0130F9027908031D582A592A06
:1004B000492A780803195D2A5E2A692AF009F10998
:1004C000F209F309F00A0319F10A0319F20A0319F0
:1004D000F30A080000307005F80000307105F900DB
:1004E00080307205FA007F307305FB007B087A04C8
:1004F00079047804031D7D2A7E2A862A0030F300C1
:100500000030F2000030F1000030F00000307405DF
:10051000F80000307505F90080307605FA007F306C
:100520007705FB007B087A0479047804031D992A77
:100530009A2AA22A0030F7000030F6000030F500B9
:100540000030F400F31FA52AA62ACA2A0030F800BA
:100550000030F9000030FA008030FB007008F8022B
:100560007108031C710FB52AB62AF9027208031C20
:10057000720FBB2ABC2AFA027308031C730FC12A2C
:10058000C22AFB027B08F3007A08F2007908F10026
:100590007808F000F71FCD2ACE2AF22A0030F800A2
:1005A0000030F9000030FA008030FB007408F802D7
:1005B0007508031C750FDD2ADE2AF9027608031C74
:1005C000760FE32AE42AFA027708031C770FE92A58
:1005D000EA2AFB027B08F7007A08F6007908F500A2
:1005E0007808F4008030F3068030F706770873024D
:1005F000031D042B76087202031D042B750871027B
:10060000031D042B740870020318072B082B0A2BF8
:1006100003100B2B03140800F80078080319112BA2
:10062000122B262BF31F152B162B262B7009FA00E5
:100630007109FB007209FC007309FD00FA0A031935
:10064000FB0A0319FC0A0319FD0A2E2B7308FD008F
:100650007208FC007108FB007008FA00730872044D
:1006600071047004031D352B362B3F2B0030F30033
:100670000030F2000030F1000030F000C52B963061
:10068000FF007F08F900512B0130FF007F08F907B8
:1006900001300310FD0CFC0CFB0CFA0CFF3E031D9B
:1006A000492BFE307D05031D562B572B442B732BF6
:1006B0000130FF007F08F9070130FA070030031806
:1006C0000130FB07003003180130FC07003003182D
:1006D0000130FD0701300310FD0CFC0CFB0CFA0C83
:1006E000FF3E031D6B2BFF307D05031D782B792BFF
:1006F000582B852B0130F9020130F4000310FA0D5C
:10070000FB0DFC0DFD0DF40B7E2BFC1B882B892BA8
:100710008F2B0230790203188E2B8F2B7A2B7918AE
:10072000922B932B9B2BFF30FA05FF30FB057F307C
:10073000FC05FF30FD050310F90C7908F400F50104
:10074000F601F70118300310F40DF50DF60DF70D55
:10075000FF3E031DA32B7408FA047508FB047608FA
:10076000FC047708FD0478080319B72BB82BBD2BC0
:10077000F31FBB2BBC2BBD2BFD177D08F3007C08A2
:10078000F2007B08F1007A08F000080083120313DE
:10079000AB002130FF007F08A6008F2C25302C06EF
:1007A0000319D32BD42BE02B2C08FF002B0884003B
:1007B0007F08831380000130FF007F08AB078F2C78
:1007C000A7010130A007FF30200784000A128A1118
:1007D00003200A128A11AC00003A0319A12C643AD2
:1007E0000319F62B0D3A0319F62BD42B2608840097
:1007F00083130008A900840A0008AA000230FF0041
:100800007F08A607AA1F052C062C0F2C0330FF001B
:100810007F08A704A909AA09A90A0319AA0AAC0111
:10082000AC0A2C08A3002307013E84000A128A1197
:1008300003200A128A11A4000A128A1103200A1244
:100840008A11A50025082A02031D282C2408290244
:1008500003182B2C2C2C2D2C372C0130FF007F085B
:10086000AC0705302C06031D362C372C112C27081D
:10087000033903193C2C3D2C482C2D30FF002B084C
:1008800084007F08831380000130FF007F08AB07DE
:100890002C08FF007F08A800862C0A30F7000030E3
:1008A000F8002808A3002307013E84000A128A11D9
:1008B00003200A128A11F0000A128A1103200A1278
:1008C0008A11F1002A08F3002908F2000A128A119D
:1008D000A6200A128A117108FA007008F9000A129B
:1008E0008A116C200A128A117708303EFF007F08B7
:1008F00083120313AC002C08FF002B0884007F0830
:10090000831380000130FF007F08AB07FF30FF003A
:100910007F08A807280A031D8E2C8F2C4D2C013030
:10092000A007FF30200784000A128A1103200A1250
:100930008A11FF007F08AC002C08031DA02CA12CFD
:10094000CE2B2B0884008313800108008316031329
:100950008701880189010A128A15A7270A128A11BC
:100960000A128A113C210A128A1100300A128A11D5
:1009700041200A128A11710883120313D2007008F1
:10098000D10001300A128A1141200A128A1171081D
:1009900083120313D4007008D3004130A300233026
:1009A000A200AE30A1001430A0005108F00052089F
:1009B000F1000030F11BFF30F200F30001300A12A9
:1009C0008A110C230A128A11730883120313A700D9
:1009D0007208A6007108A5007008A4000A128A1106
:1009E0001F260A128A11831203132308D900220832
:1009F000D8002108D7002008D6004130A3002330BA
:100A0000A200AE30A1001430A0005308F00054083A
:100A1000F1000030F11BFF30F200F30001300A1248
:100A20008A110C230A128A11730883120313A70078
:100A30007208A6007108A5007008A4000A128A11A5
:100A40001F260A128A11831203132308DD002208CD
:100A5000DC002108DB002008DA004230F300BE3061
:100A6000F2000030F1000030F0005D08F7005C0893
:100A7000F6005B08F5005A08F4000A128A116A228F
:100A80000A128A11031C452D472D0130482D0030D4
:100A9000FF007F0883120313D5004130F300A0301C
:100AA000F2000030F1000030F0005908F70058085B
:100AB000F6005708F5005608F4000A128A116A2257
:100AC0000A128A110318652D662D872D83120313D0
:100AD0005D08F3005C08F2005B08F1005A08F000C2
:100AE0004230F700A030F6000030F5000030F4008E
:100AF0000A128A116A220A128A110318802D812D86
:100B0000872D0A128A15A3270A128A11AE2D4130A9
:100B1000F300A030F2000030F1000030F00083124A
:100B200003135908F7005808F6005708F50056084F
:100B3000F4000A128A116A220A128A110318A12DDE
:100B4000A22DA92D8312031355080319A82DA92D31
:100B5000AE2D0A128A159F270A128A110B30FF0048
:100B60007F0883120313A0005908F3005808F2000D
:100B70005708F1005608F0000A128A11F0210A12F3
:100B80008A11710883120313A2007008A1003D307E
:100B90000A128A11C6230A128A111530FF007F0833
:100BA00083120313A0005D08F3005C08F2005B08E9
:100BB000F1005A08F0000A128A11F0210A128A1173
:100BC000710883120313A2007008A10047300A12B3
:100BD0008A11C6230A128A110A128A15B0270A122C
:100BE0008A11F401F40A01300A128A11EA200A1269
:100BF0008A113D300A128A15BD270A128A11F401A2
:100C0000F40A02300A128A11EA200A128A114730C5
:100C10000A128A15BD270A128A11033083120313A0
:100C2000BC008A30BB005530BA00BA0B152EBB0B86
:100C3000152EBC0B152EB52C0A128A110028831212
:100C4000031327088039FF007F08B1002708A80098
:100C50002807FF007F08B800A61F2F2E302E312E48
:100C6000381438080319352E362E462E380A031D3F
:100C70003A2E3B2E432E0030A7000030A600003055
:100C8000A5000030A400A617A7014E2E0030A70033
:100C90000030A6000030A5000030A40023088039F1
:100CA000FF007F08B1062308A8002807FF007F087F
:100CB000B900A21F5C2E5D2E5E2E3914390803196F
:100CC000622E632E732E390A031D672E682E702E36
:100CD0000030A3000030A2000030A1000030A000CE
:100CE000A217A3017B2E0030A3000030A200003029
:100CF000A1000030A0002308220421042004031DC9
:100D0000822E832E9C2E0030A7000030A6000030DB
:100D1000A5000030A4008030A6047F30A70431086D
:100D2000FF007F08A7042708A3002608A2002508C3
:100D3000A1002408A000FB2F3808031DA02EA12E1F
:100D4000AA2E0030A3000030A2000030A100003025
:100D5000A000FB2F3808A800A9012908AB0039081A
:100D60002802AA00031CAB032A087F3EB2002B080E
:100D70000318013E003EB3002708B0002608AF006C
:100D80002508AE002408AD000030A7000030A60002
:100D90000030A5000030A4000030B7000030B600DD
:100DA0000030B5000030B400B901202F3908031914
:100DB000DA2EDB2EFB2E0130A8000310AD0DAE0D98
:100DC000AF0DB00DA80BDD2E0130A8000310A40D4F
:100DD000A50DA60DA70DA80BE62EB71FF02EF12E20
:100DE000F22E24140130A8000310B40DB50DB60D79
:100DF000B70DA80BF42E23083002031D092F22087B
:100E00002F02031D092F21082E02031D092F200880
:100E10002D02031C0C2F0D2F1C2F37172008AD029D
:100E20002108031C210FAE022208031C220FAF026F
:100E30002308031C230FB0020130FF007F08B9070D
:100E40001A303902031C252F262FD62E30082F04E6
:100E50002E042D0403192D2F2E2F4D2F34144D2F1A
:100E60000130A8000310A40DA50DA60DA70DA80B19
:100E7000322FB71F3C2F3D2F3E2F24140130A800E6
:100E80000310B40DB50DB60DB70DA80B402FFF30F4
:100E9000B2070318B30AFF30B307A61F502F512F14
:100EA000302FB901B71F552F562F722FFF30340541
:100EB000A800FF303505A900FF303605AA007F30B5
:100EC0003705AB002B082A04290428040319692FCD
:100ED0006A2F6D2FB901B90A722F241C702F712F40
:100EE000722F6A2F39080319762F772FA82F013018
:100EF000A407003003180130A507003003180130A3
:100F0000A607003003180130A707271C882F892F58
:100F1000A82F2408A8002508A9002608AA00270849
:100F2000AB000130AC002B0DAB0CAA0CA90CA80C2B
:100F3000AC0B932F2B08A7002A08A6002908A500B0
:100F40002808A4000130B2070318B30A0030B30721
:100F50003308803AFF0080307F02031DB12FFF303D
:100F60003202031CB42FB52FC32FFF30831203139B
:100F7000B2000030B3000030A7000030A6000030FF
:100F8000A5000030A400831203133308803AFF0049
:100F900080307F02031DCE2F013032020318D12F83
:100FA000D22FDF2F83120313B201B3010030A70049
:100FB0000030A6000030A5000030A400B10183126B
:100FC00003133208FF007F08B800381CE82FE92F10
:100FD000EB2FA617EF2F7F30FF007F08A6053808FC
:100FE000A8000310280CFF007F08A7003108FF00AD
:100FF0007F08A704932E080083010A128A11A62CE9
:101F3E0083120313071008008312031307140800FB
:101F4E004130831203139F00C030831603139F008A
:101F5E00080000300A128A1127200A128A15013051
:101F6E000A128A1127200A128A150800FC00FA01AB
:101F7E00FB01D22F7A087C07F9007908840000084B
:101F8E000A128A1191210A128A150130FA070318D2
:101F9E00FB0A0030FB077A087C07F90079088400F9
:101FAE0083130008031DDC2FDD2FC12F0800F00066
:101FBE00701CE22FE32FE72F831203130816EA2F6C
:101FCE00831203130812F01CED2FEE2FF02F88163C
:101FDE00F12F8812701DF42FF52FF72F0817F82FF9
:101FEE000813F01DFB2FFC2FFE2F8817FF2F8813D1
:021FFE000800D9
:02400E00733FFE
:00000001FF
