:020000040000FA
:0400000007EF00F016
:0A0008007582C2ED0FF06CEF1AF0E4
:100600000001000A006400E8031027010010000048
:100610000100102530325820253032582025303244
:100620005820253032582020202020004355525297
:10063000454E54204C56313A202564252520200073
:1006400043555252454E54204C56323A202564258B
:10065000252020004C565F4D494E5F313A202564DD
:100660002525202020004C565F4D494E5F323A2010
:1006700025642525202020003031323334353637AB
:100680003839414243444546004D414E55414C2086
:10069000202020202020202020004D4F4442555370
:1006A0003A202020202020202020004155544F4D6A
:1006B0004154494320202020202020004F50455203
:1006C0004154494F4E204D4F44453A200000130EEF
:1006D000226E000E236EE2EF05F0250E2C18D8B422
:1006E00074EF03F076EF03F080EF03F00FC0D9FF53
:1006F00010C0DAFF2CC0DFFF0F4A102AE2EF05F02E
:10070000000E2B6E000E2A6E000E296E8BEF03F08A
:100710002984114A122A11C0F6FF12C0F7FF0800FF
:10072000F550300AD8B488EF03F097EF03F011C00A
:10073000F6FF12C0F7FF0800F5501EEC1BF0D8A022
:10074000A4EF03F0A6EF03F036EF04F0000E2B6EDB
:10075000000E2A6E2AC003F02BC004F0000E066EB5
:100760000A0E056EBCEC1BF003C02AF004C02BF08F
:10077000D00E1B6EFF0E1C6E11C0F6FF12C0F7FFED
:100780000800F5501D6E1E6A1B501D261C501E22AF
:100790001D502A261E502B22114A122A11C0F6FF84
:1007A00012C0F7FF0800F5501EEC1BF0D8B0DBEFCD
:1007B00003F0DDEF03F0AAEF03F036EF04F0298E2B
:1007C00056EF04F02B5009E1020E2A5CD8A0EBEFA3
:1007D00003F0EDEF03F0F2EF03F02A06D8A02B06AA
:1007E00000EF04F0000E2B6E000E2A6E00EF04F0F6
:1007F0000FC0D9FF10C0DAFF200EDF6E0F4A102A9B
:100800002A06D8A02B062A2806E12B28D8A40BEF0D
:1008100004F00DEF04F0F8EF03F01DEF04F01FC03B
:10082000D9FF20C0DAFF0FC0E1FF10C0E2FFDFCF29
:10083000E7FF1F4A202A0F4A102A2406D8A02506BF
:10084000242806E12528D8A428EF04F02AEF04F094
:100850000FEF04F0E2EF05F02C0E1F6E000E206E7D
:10086000000E256E010E246EE2EF03F011C0F6FFBC
:1008700012C0F7FF114A122A0800F5CF2CF02C50B5
:10088000000AD8B4F3EF05F0580AD8B4DFEF03F04C
:100890003C0AD8B456EF04F00D0AD8B456EF04F071
:1008A000110AD8B4DFEF03F02CEF04F029BE5BEFA0
:1008B00004F05DEF04F078EF04F022C0D9FF23C00C
:1008C000DAFFDECF27F0DDCF28F0020E2226000E61
:1008D000232228BE70EF04F06EEF04F0D4EF04F092
:1008E000030E2912276C281ED8B0282AD4EF04F052
:1008F00022C0D9FF23C0DAFFDECF27F0DDCF28F0FA
:10090000020E2226000E2322D4EF04F0010E2C6EDC
:10091000050E2C18D8A48FEF04F091EF04F093EF9C
:1009200004F0E0EF04F02C50020D010EF324F66EFB
:10093000060EF420F76E0900F550275C0900F5500B
:100940002858D8B0A6EF04F0A8EF04F0AAEF04F0FE
:10095000E0EF04F02C2A88EF04F0010E2C6E040E58
:100960002C18D8A4B6EF04F0B8EF04F0BAEF04F0F6
:10097000E0EF04F02C50020D0B0EF324F66E060E81
:10098000F420F76E0900F550275C0900F55028584F
:10099000D8B0CDEF04F0CFEF04F0D1EF04F0E0EFEA
:1009A00004F02C2AAFEF04F02950800B000AD8B4D1
:1009B00086EF04F0800AD8B4ADEF04F0E0EF04F065
:1009C0002A502B10D8B4E7EF04F0E9EF04F0F7EF6A
:1009D00004F029C01BF0030E1B16D8B4F2EF04F08C
:1009E000F4EF04F0F7EF04F02A06D8A02B062C5001
:1009F0001B6E1C6A2A501B5C1C50800A1D6E2B50FB
:100A0000800A1D58D8B007EF05F009EF05F00FEF89
:100A100005F02C502A5E000E2B5A13EF05F0000E45
:100A20002B6E000E2A6E29A418EF05F01AEF05F0C0
:100A30004CEF05F029C01BF0030E1B16D8B423EFB2
:100A400005F025EF05F02DEF05F00FC0D9FF10C020
:100A5000DAFF2D0EDF6E0F4A102A2A502B10D8B461
:100A600034EF05F036EF05F07CEF05F00FC0D9FF4D
:100A700010C0DAFF300EDF6E0F4A102A2A06D8A007
:100A80002B062A502B10D8A448EF05F04AEF05F0AA
:100A900036EF05F07CEF05F02A502B10D8B453EF59
:100AA00005F055EF05F069EF05F00FC0D9FF10C054
:100AB000DAFF200EDF6E0F4A102A2A06D8A02B0676
:100AC0002A502B10D8A467EF05F069EF05F055EF19
:100AD00005F029C01BF0030E1B16D8B472EF05F009
:100AE00074EF05F07CEF05F00FC0D9FF10C0DAFFFE
:100AF0002D0EDF6E0F4A102A2CC026F0D9EF05F01C
:100B00002650020D010EF324F66E060EF420F76E49
:100B10000900F5CF05F00A00F5CF06F027C003F075
:100B200028C004F098EC19F003C00AF004C00BF0E0
:100B3000000E0D6E0A0E0C6E09EC1AF00A50300F02
:100B40002C6ED1EF05F027C003F028C004F026502A
:100B5000020D0B0EF324F66E060EF420F76E09005C
:100B6000F5CF05F00A00F5CF06F098EC19F0035028
:100B70000F0B216E780E2124F66EF76A060EF7220F
:100B80000800F5CF2CF0D1EF05F02950800B000ABA
:100B9000D8B480EF05F0800AD8B4A3EF05F0D1EF08
:100BA00005F00FC0D9FF10C0DAFF2CC0DFFF0F4ADD
:100BB000102A26062628D8A4E0EF05F0E2EF05F07B
:100BC000C5EF05F011C0F6FF12C0F7FF114A122A57
:100BD0000800F5CF2CF02C50D8A4F1EF05F0F3EF7E
:100BE00005F06DEF03F00FC0D9FF10C0DAFF000E63
:100BF000DF6E12000650800B0F6E06500624116E39
:100C000005AE05EF06F007EF06F008EF06F01180DD
:100C10001150D8B40EEF06F010EF06F025EF06F0F5
:100C20001128D8A416EF06F018EF06F020EF06F012
:100C3000000E036E000E046E000E056E000E066EB2
:100C4000058E000E066E2DEF06F0000E036E000EF0
:100C5000046E000E056E000E066E0A50800B106EBC
:100C60000F501018D8B437EF06F039EF06F03AEF0E
:100C700006F00F8C0A500A24106E09AE42EF06F0FF
:100C800044EF06F045EF06F010801050D8B44BEF5B
:100C900006F04DEF06F062EF06F01028D8A453EFEF
:100CA00006F055EF06F05DEF06F0000E076E000E41
:100CB000086E000E096E000E0A6E098E000E0A6E96
:100CC0006AEF06F0000E076E000E086E000E096E49
:100CD000000E0A6E1150105CD8B071EF06F073EF81
:100CE00006F09AEF06F00FAC78EF06F07AEF06F018
:100CF0007CEF06F0800E0F1A11C012F010C011F038
:100D000012C010F003C012F007C003F012C007F0C9
:100D100004C012F008C004F012C008F005C012F0C0
:100D200009C005F012C009F006C012F00AC006F0B2
:100D300012C00AF0000E126E115010C00BF00C6AB7
:100D40000B5E000E0C5A0CBEAFEF06F00C5009E122
:100D50001A0E0B5CD8A0AFEF06F0B1EF06F0E8EF8B
:100D600006F00350041005100610D8A4BAEF06F0E0
:100D7000BDEF06F0010EBEEF06F0000E126E000E83
:100D8000036E000E046E000E056E000E066E10C09F
:100D900011F0F1EF06F012A0D0EF06F0D2EF06F05E
:100DA000D8EF06F0D89012300109126EDAEF06F093
:100DB000D890123203A0DFEF06F0E1EF06F0E2EF89
:100DC00006F0128E06340632053204320332112A3E
:100DD0001050115CD8A0EFEF06F0F1EF06F0CBEF6A
:100DE00006F00FBCF6EF06F0F8EF06F038EF07F06C
:100DF0001150D8A4FEEF06F000EF07F00AEF07F05D
:100E0000000E036E000E046E000E056E000E066EE0
:100E100059EF08F007500326085004220950052214
:100E20000A50062206A017EF07F019EF07F0C5EFEA
:100E300007F012A01EEF07F020EF07F026EF07F0F3
:100E4000D89012300109126E28EF07F0D8901232B4
:100E500003A02DEF07F02FEF07F030EF07F0128E11
:100E600006340632053204320332112AC5EF07F088
:100E70000750035C08500458095005580650800A72
:100E80000B6E0A50800A0B58D8B049EF07F04BEFB1
:100E900007F076EF07F00350075C0B6E045008581C
:100EA0000C6E055009580D6E06500A580E6EFF0E56
:100EB0000B24036EFF0E0C20046EFF0E0D20056E3A
:100EC000FF0E0E20066E800E0F1A126C1250D8A460
:100ED0006CEF07F06EEF07F07EEF07F0010E0326D0
:100EE000000E0422052206227EEF07F00750035E63
:100EF0000850045A0950055A0A50065A0350041063
:100F000005100610D8A487EF07F089EF07F0BEEFB1
:100F100007F01250D8A48FEF07F091EF07F0BEEF63
:100F200007F0000E036E000E046E000E056E000E3C
:100F3000066E59EF08F0D8900336043605360636AB
:100F400012AEA5EF07F0A7EF07F0A8EF07F00380B8
:100F500012A0ADEF07F0AFEF07F0B3EF07F0D880C6
:100F60001236B5EF07F0D89012361150D8B4BBEF57
:100F700007F0BDEF07F0BEEF07F0110605AEC3EFB7
:100F800007F0C5EF07F09BEF07F0000E106E12AEF2
:100F9000CCEF07F0CEEF07F0E6EF07F012C00BF052
:100FA0007F0E0B16D8B4D7EF07F0D9EF07F0DDEFBF
:100FB00007F0010E106EE6EF07F003A0E2EF07F076
:100FC000E4EF07F0E6EF07F0D9EF07F01050D8B4E0
:100FD000ECEF07F0EEEF07F019EF08F0010E032633
:100FE000000E04220522062206A0F9EF07F0FBEF0F
:100FF00007F019EF08F003C00BF004C00CF005C0B7
:101000000DF006C00EF00E340E320D320C320B32E3
:101010000BC003F00CC004F00DC005F00EC006F0CC
:101020001128D8B416EF08F018EF08F019EF08F0FF
:10103000112A1128D8B41FEF08F021EF08F029EF8A
:1010400008F01150D8A427EF08F029EF08F03BEF83
:1010500008F0000E036E000E046E000E056E000E0A
:10106000066E1150D8A437EF08F039EF08F03BEFC7
:1010700008F0000E0F6E11A040EF08F042EF08F0EC
:1010800045EF08F0058E46EF08F0059ED890113028
:10109000066E0FAE4EEF08F050EF08F051EF08F07B
:1010A000068E03C003F004C004F005C005F006C0BE
:1010B00006F012001450800B216E14501424286E78
:1010C00013AE65EF08F067EF08F068EF08F02880CE
:1010D0002850D8B46EEF08F070EF08F085EF08F0F4
:1010E0002828D8A476EF08F078EF08F080EF08F011
:1010F000000E116E000E126E000E136E000E146EB6
:10110000138E000E146E8DEF08F0000E116E000E9F
:10111000126E000E136E000E146E1850800B211A02
:1011200018501824296E17AE98EF08F09AEF08F0BF
:101130009BEF08F029802950D8B4A1EF08F0A3EF65
:1011400008F0B8EF08F02928D8A4A9EF08F0ABEF11
:1011500008F0B3EF08F0000E156E000E166E000ECC
:10116000176E000E186E178E000E186EC0EF08F086
:10117000000E156E000E166E000E176E000E186E25
:101180001550161017101810D8A4C9EF08F0CBEF9F
:1011900008F0E3EF08F0000E116E000E126E000E64
:1011A000136E000E146E800E13127F0E1412215057
:1011B000141211C011F012C012F013C013F014C0B9
:1011C00014F026EF0AF02850D8A4E9EF08F0EBEF6E
:1011D00008F0F5EF08F0000E116E000E126E000E12
:1011E000136E000E146E26EF0AF0295028C019F075
:1011F0001A6A195E000E1A5A7F0E1924226E000E0A
:101200001A20236E11C01DF012C01EF013C01FF073
:1012100014C020F0000E116E000E126E000E136E40
:10122000000E146E000E246E000E256E000E266E4B
:10123000000E276E000E296E56EF09F02950D8B423
:1012400024EF09F026EF09F03DEF09F0D8901D36A4
:101250001E361F362036D890113612361336143605
:1012600027AE35EF09F037EF09F038EF09F01180BC
:10127000D890243625362636273615501D5C165054
:101280001E5817501F5818502058D8A04AEF09F080
:101290004CEF09F055EF09F0278C15501D5E1650E4
:1012A0001E5A17501F5A1850205A292A190E2964FD
:1012B0005CEF09F05EEF09F01EEF09F01D501E1003
:1012C0001F102010D8B467EF09F069EF09F081EF23
:1012D00009F0248081EF09F0D890113612361336C8
:1012E000143627AE76EF09F078EF09F079EF09F0C0
:1012F0001180D89024362536263627362206D8A0E7
:10130000230613AE86EF09F088EF09F06CEF09F0C1
:10131000000E296E27AE8FEF09F091EF09F0B5EFBF
:1013200009F0FF0E2414196EFF0E25141A6EFF0E1D
:1013300026141B6E7F0E27141C6E19501A101B10DA
:101340001C10D8B4A6EF09F0A8EF09F0ACEF09F033
:10135000010E296EB5EF09F011A0B1EF09F0B3EF5E
:1013600009F0B5EF09F0A8EF09F02950D8B4BBEFA8
:1013700009F0BDEF09F0E1EF09F0010E1126000EB2
:1013800012221322142214A0C8EF09F0CAEF09F0A8
:10139000E1EF09F011C019F012C01AF013C01BF0F0
:1013A00014C01CF01C341C321B321A32193219C002
:1013B00011F01AC012F01BC013F01CC014F0224A26
:1013C000232A23BEECEF09F0235008E12228D8A0FD
:1013D000ECEF09F0EEEF09F0F9EF09F0000E236EE3
:1013E0002268000E116E000E126E000E136E000EBB
:1013F000146E23BE06EF0AF0235006E12204D8B093
:1014000004EF0AF006EF0AF014EF0AF0000E236E64
:10141000000E226E000E116E000E126E000E136E84
:10142000000E146E000E216E22C028F028A01BEFC3
:101430000AF01DEF0AF020EF0AF0138E21EF0AF0F8
:10144000139ED8902830146ED7EF08F01200000ECB
:101450001F6E000E1E6E000E1C6E000E1B6E000E28
:10146000206E000E1D6E000E226E000E216E02C157
:1014700019F01A6A19501A6E196A010103511912EA
:1014800004C11EF01F6A1E501F6E1E6A05511E12F7
:10149000010E7D6F020E7E6F1EC015F01FC016F08C
:1014A000D89016321532D89016321532D89016329E
:1014B00015321550206E1E50070B1D6E1D50D8B4EE
:1014C00064EF0AF066EF0AF067EF0AF0202A20C006
:1014D0007FF119C021F0030E256E20C023F02350A8
:1014E000D8A475EF0AF077EF0AF079EF0AF0F5EF7C
:1014F0000AF0010E23647FEF0AF081EF0AF0B9EFE2
:101500000AF0000E246E000E2124D96EDA6A020E53
:10151000DA22DF50D8B48FEF0AF091EF0AF095EF9E
:101520000AF0010E226E97EF0AF0000E226E24C020
:1015300015F022C016F0152AA0EF0AF0D890163642
:10154000152E9EEF0AF07D0E2524D96EDA6A010E63
:10155000DA221650DF1A212A242A080E2418D8A4C9
:10156000B4EF0AF0B6EF0AF083EF0AF0252AF2EFA3
:101570000AF0000E246EE7EF0AF0000E2124D96E67
:10158000DA6A020EDA22DF50D8B4C9EF0AF0CBEFE4
:101590000AF0CFEF0AF0010E226ED1EF0AF0000E32
:1015A000226E24C015F022C016F0152ADAEF0AF0D8
:1015B000D8901636152ED8EF0AF07D0E2524D96E58
:1015C000DA6A010EDA221650DF1A212A242A1D5067
:1015D0002418D8A4EEEF0AF0F0EF0AF0BDEF0AF0FD
:1015E000B6EF0AF023066FEF0AF02550020FF9EC70
:1015F00015F003C01BF004C01CF07D0E2524D96E2D
:10160000DA6A010EDA221C50DF6E7E0E2524D96EB6
:10161000DA6A010EDA221BC0DFFF8A8E000E236E0B
:1016200022EF0BF0ACA217EF0BF019EF0BF012EF5B
:101630000BF07D0E2324D96EDA6A010EDA22DF5018
:10164000AD6E232A2350156E166A2550176E186A40
:10165000030E1726000E18221550171807E1165012
:101660001818D8A436EF0BF038EF0BF012EF0BF090
:101670008A9E37EC1BF01200000E1F6E000E1E6ECD
:10168000000E1C6E000E1B6E000E206E000E1D6EF6
:10169000000E226E000E216E02C119F01A6A195056
:1016A0001A6E196A01010351191204C11EF01F6A52
:1016B0001E501F6E1E6A05511E12010E7D6F010E17
:1016C0007E6F1EC015F01FC016F0D890163215326E
:1016D000D89016321532D890163215321550206E29
:1016E0001E50070B1D6E1D50D8B479EF0BF07BEF29
:1016F0000BF07CEF0BF0202A20C07FF119C021F005
:10170000030E256E20C023F02350D8A48AEF0BF0DF
:101710008CEF0BF08EEF0BF00AEF0CF0010E236450
:1017200094EF0BF096EF0BF0CEEF0BF0000E246E63
:10173000000E2124D96EDA6A020EDA22DF50D8B404
:10174000A4EF0BF0A6EF0BF0AAEF0BF0010E226E48
:10175000ACEF0BF0000E226E24C015F022C016F084
:10176000152AB5EF0BF0D8901636152EB3EF0BF007
:101770007D0E2524D96EDA6A010EDA221650DF1AA0
:10178000212A242A080E2418D8A4C9EF0BF0CBEF85
:101790000BF098EF0BF0252A07EF0CF0000E246EEB
:1017A000FCEF0BF0000E2124D96EDA6A020EDA2269
:1017B000DF50D8B4DEEF0BF0E0EF0BF0E4EF0BF00E
:1017C000010E226EE6EF0BF0000E226E24C015F023
:1017D00022C016F0152AEFEF0BF0D8901636152E12
:1017E000EDEF0BF07D0E2524D96EDA6A010EDA22B8
:1017F0001650DF1A212A242A1D502418D8A403EFDA
:101800000CF005EF0CF0D2EF0BF0CBEF0BF0230652
:1018100084EF0BF02550020FF9EC15F003C01BF01C
:1018200004C01CF07D0E2524D96EDA6A010EDA227E
:101830001C50DF6E7E0E2524D96EDA6A010EDA2284
:101840001BC0DFFF8A8E000E236E37EF0CF0ACA2B8
:101850002CEF0CF02EEF0CF027EF0CF07D0E232474
:10186000D96EDA6A010EDA22DF50AD6E232A2350D8
:10187000156E166A2550176E186A030E1726000E8D
:1018800018221550171807E116501818D8A44BEF56
:101890000CF04DEF0CF027EF0CF08A9E37EC1BF0AC
:1018A0001200000E1C6E000E1B6E030E1F6E000E4B
:1018B000186E000E176E000E1E6E000E1D6E02C119
:1018C00019F01A6A19501A6E196A01010351191296
:1018D00004C11BF01C6A1B501C6E1B6A05511B12B5
:1018E000010E7D6F030E7E6F1B501B247F6F19C08E
:1018F0001DF01AC01EF0DBEF0CF0D8901D34D96E2D
:101900001E34DA6E800ED926000EDA22000EDE5C5E
:10191000010EDE58D8A08FEF0CF091EF0CF0BEEF67
:101920000CF07D0E1F24D96EDA6A010EDA22D890EF
:101930001D34E16E1E34E26E800EE126000EE222BE
:10194000E6CF15F0E5CF16F016C015F0166A155063
:10195000DF6E1F2AD8901D34D96E1E34DA6E800EC9
:10196000D926000EDA227D0E1F24E16EE26A010EF6
:10197000E222DFCFE7FF1F2AD9EF0CF07D0E1F24F4
:10198000D96EDA6A010EDA22000EDF6E1F2AD890B5
:101990001D34D96E1E34DA6E800ED926000EDA227E
:1019A0007D0E1F24E16EE26A010EE222DFCFE7FF27
:1019B0001F2A1D4A1E2A1B501924156E1C501A205E
:1019C000166E15501D5C16501E58D8A0EAEF0CF08C
:1019D000ECEF0CF07DEF0CF01F50020FF9EC15F05E
:1019E00003C017F004C018F07D0E1F24D96EDA6A08
:1019F000010EDA221850DF6E1F2A7D0E1F24D96EC9
:101A0000DA6A010EDA2217C0DFFF020E1F268A8E65
:101A1000000E1E6E000E1D6E1FEF0DF0ACA213EF38
:101A20000DF015EF0DF00EEF0DF07D0E1D24D96EAB
:101A3000010E1E20DA6EDF50AD6E1D4A1E2A1F50A9
:101A4000156E166A1D50151807E11E501618D8A4F9
:101A50002CEF0DF02EEF0DF00EEF0DF08A9E37EC0F
:101A60001BF01200000E1C6E000E1B6E030E1F6E8C
:101A7000000E186E000E176E000E1E6E000E1D6E0C
:101A800002C119F01A6A19501A6E196A010103513C
:101A9000191204C11BF01C6A1B501C6E1B6A0551F5
:101AA0001B12010E7D6F040E7E6F1B501B247F6F77
:101AB00019C01DF01AC01EF0BCEF0DF0D8901D34F7
:101AC000D96E1E34DA6E800ED926000EDA22000E90
:101AD000DE5C010EDE58D8A070EF0DF072EF0DF055
:101AE0009FEF0DF07D0E1F24D96EDA6A010EDA2207
:101AF000D8901D34E16E1E34E26E800EE126000E99
:101B0000E222E6CF15F0E5CF16F016C015F0166A02
:101B10001550DF6E1F2AD8901D34D96E1E34DA6E30
:101B2000800ED926000EDA227D0E1F24E16EE26AB5
:101B3000010EE222DFCFE7FF1F2ABAEF0DF07D0E84
:101B40001F24D96EDA6A010EDA22000EDF6E1F2A18
:101B5000D8901D34D96E1E34DA6E800ED926000E50
:101B6000DA227D0E1F24E16EE26A010EE222DFCF4F
:101B7000E7FF1F2A1D4A1E2A1B501924156E1C50F0
:101B80001A20166E15501D5C16501E58D8A0CBEFAB
:101B90000DF0CDEF0DF05EEF0DF01F50020FF9ECE0
:101BA00015F003C017F004C018F07D0E1F24D96E85
:101BB000DA6A010EDA221850DF6E1F2A7D0E1F240A
:101BC000D96EDA6A010EDA2217C0DFFF020E1F2675
:101BD0008A8E000E1E6E000E1D6E00EF0EF0ACA27F
:101BE000F4EF0DF0F6EF0DF0EFEF0DF07D0E1D248C
:101BF000D96E010E1E20DA6EDF50AD6E1D4A1E2A10
:101C00001F50156E166A1D50151807E11E50161844
:101C1000D8A40DEF0EF00FEF0EF0EFEF0DF08A9E4F
:101C200037EC1BF012000B6E0B50D8B41AEF0EF00D
:101C30001CEF0EF03EEF0EF006BE23EF0EF021EF8C
:101C40000EF03EEF0EF003C007F004C008F005C030
:101C500009F006C00AF0071E081E091E0A1E072A00
:101C6000000E082209220A2207C00DF008C00EF05B
:101C700009C00FF00AC010F046EF0EF003C00DF0DF
:101C800004C00EF005C00FF006C010F003500410A1
:101C900005100610D8A44FEF0EF051EF0EF05BEFD9
:101CA0000EF0000E036E000E046E000E056E000EA8
:101CB000066EECEF0EF0960E0C6E65EF0EF00C2A31
:101CC000D89010320F320E320D32000E0D14076E06
:101CD000000E0E14086E000E0F14096EFE0E101486
:101CE0000A6E0750081009100A10D8A47AEF0EF0F7
:101CF0007CEF0EF05FEF0EF08AEF0EF00C2A010E73
:101D00000D26000E0E220F221022D89010320F3214
:101D10000E320D32000E0D14076E000E0E14086EFA
:101D2000000E0F14096EFF0E10140A6E07500810F3
:101D300009100A10D8A49FEF0EF0A1EF0EF07EEF6D
:101D40000EF0A9EF0EF00C06D8900D360E360F36B9
:101D500010360FBEAEEF0EF0B0EF0EF0B8EF0EF093
:101D6000020E0C60B6EF0EF0B8EF0EF0A3EF0EF01F
:101D70000CB0BDEF0EF0BFEF0EF0C0EF0EF00F9EF7
:101D8000D8900C320CC007F0086A096A0A6A07C0CA
:101D90000AF0096A086A076A07500D1208500E1205
:101DA00009500F120A5010120B50D8B4DAEF0EF08F
:101DB000DCEF0EF0E4EF0EF006BEE3EF0EF0E1EF25
:101DC0000EF0E4EF0EF0108E0DC003F00EC004F024
:101DD0000FC005F010C006F012005B50D8A4F3EF5E
:101DE0000EF0F5EF0EF027EF0FF0320E0F6E020E31
:101DF000106E2C0E116E060E126E47C003F048C016
:101E000004F049C005F04AC006F0F2EC13F003C03C
:101E100013F004C014F067EC03F0420E0F6E020ED4
:101E2000106E400E116E060E126E3BC003F03CC0E9
:101E300004F03DC005F03EC006F0F2EC13F003C024
:101E400013F004C014F067EC03F0C1EF0FF05B0473
:101E5000D8A42DEF0FF02FEF0FF057EF0FF0320E49
:101E6000036E020E046EBC0E056E060E066EE4ECEA
:101E70001AF05C50D8B43FEF0FF041EF0FF047EF8E
:101E80000FF0890E2D6E060E2E6E4BEF0FF0AB0E7F
:101E90002D6E060E2E6E420E036E020E046E2DC0C7
:101EA00005F02EC006F0E4EC1AF0C1EF0FF0020EC0
:101EB0005B18D8A45EEF0FF060EF0FF092EF0FF019
:101EC000320E0F6E020E106E540E116E060E126E52
:101ED0004BC003F04CC004F04DC005F04EC006F0FE
:101EE000F2EC13F003C013F004C014F067EC03F03D
:101EF000420E0F6E020E106E660E116E060E126E00
:101F00003FC003F040C004F041C005F042C006F0FD
:101F1000F2EC13F003C013F004C014F067EC03F00C
:101F2000C1EF0FF0030E5B18D8A499EF0FF09BEFF1
:101F30000FF0C1EF0FF0320E036E020E046E9A0E18
:101F4000056E060E066EE4EC1AF0420E0F6E020EDF
:101F5000106E130E116E060E126E80C013F081C04B
:101F600014F082C015F083C016F084C017F085C04D
:101F700018F086C019F087C01AF067EC03F0C1EFC3
:101F80000FF012000600D9CF01F0DACF02F09EA0C8
:101F9000CCEF0FF0CEEF0FF000EF10F09E902C0E74
:101FA000CE6ECF0ECF6E594A5A2A574A582A640E1F
:101FB00059185A10D8A4DFEF0FF0E1EF0FF0F1EF4E
:101FC0000FF0000E5A6E000E596E5B2A040E5B185D
:101FD000D8A4EDEF0FF0EFEF0FF0F1EF0FF0000EE0
:101FE0005B6E190E57185810D8A4F9EF0FF0FBEFDD
:101FF0000FF000EF10F0000E586E000E576E748058
:102000009EAA05EF10F007EF10F050EF10F06150AE
:10201000D8A40DEF10F00FEF10F029EF10F06B5077
:10202000D8A415EF10F017EF10F029EF10F09EA8CC
:102030001CEF10F01EEF10F029EF10F0000E5D24E1
:10204000D96EDA6A010EDA22AECFDFFF5D2A000E0A
:10205000606E6B50D8B42FEF10F031EF10F04FEFEF
:1020600010F0DEEC1BF09EA838EF10F03AEF10F005
:102070004FEF10F0000E5D24D96EDA6A010EDA22FD
:10208000AECFDFFF5D2A000E6B6E000E616E000E9C
:102090005F6E000E5E6E000E606E86EF10F09E9A10
:1020A000F2A455EF10F057EF10F086EF10F016EC99
:1020B0001CF0602A040E606460EF10F062EF10F014
:1020C00085EF10F0010E616E010E6B6E5DC05FF06A
:1020D000010E5E6E5FC05DF077EF10F0000E5D24C4
:1020E000D96EDA6A010EDA22000EDF6E5D2A7D0EED
:1020F0005D18D8A47EEF10F080EF10F06EEF10F0B6
:10210000000E5D6ED59E000E606EF29402C0DAFF86
:1021100001C0D9FF75921100056E84928484036A10
:1021200005AE01D0032A010E031603320332835099
:1021300003187F0B0318836E05C003F0060E046EB0
:10214000D8900332042EA0EF10F0010E0316033ACC
:102150000346034683500318BF0B0318836E05C064
:1021600003F0050E046ED8900332042EB3EF10F086
:10217000010E0316033A034683500318DF0B0318BE
:10218000836E05C003F0033A0F0E0316010E03160B
:10219000033A83500318EF0B0318836E030EE82EE7
:1021A000FED700F08482040EE82EFED7849205C08C
:1021B00003F0D8900332D8900332D8900332010E46
:1021C000031603320332835003187F0B0318836E08
:1021D00005C003F0D8900332D8900332010E0316E5
:1021E000033A0346034683500318BF0B0318836E5C
:1021F00005C003F0D8900332010E0316033A0346DC
:1022000083500318DF0B0318836E05C003F0010E23
:102210000316033A83500318EF0B0318836E030E63
:10222000E82EFED700F08482040EE82EFED78492BA
:10223000040EE82EFED7120E036EDA0EE82EFED73D
:10224000032EFCD700D012000E680F68000E0B6E34
:10225000000E0A6E000E0D6E000E0C6E000E116E5A
:10226000000E106E63EF11F0000E1024D96E010EF7
:102270001120DA6EDF50036E03500E1A000E0D6E41
:10228000080E0C6E0EA047EF11F049EF11F052EF5F
:1022900011F0D8900F320E32010E0E1AA00E0F1A46
:1022A00055EF11F0D8900F320E320C06D8A00D0663
:1022B0000C500D10D8A45FEF11F061EF11F042EF58
:1022C00011F0104A112AFE0E036EFF0E046E5F50CD
:1022D000056E066A03500526045006220550105C60
:1022E0001150800A076E0650800A0758D8A07BEF6D
:1022F00011F07DEF11F034EF11F00E50086E096A05
:102300000EC003F00FC004F004C003F0046A0350D1
:102310000A6E0B6A000E1024D96E010E1120DA6EBF
:10232000DF50036E046A0850031807E109500418CF
:10233000D8A49DEF11F09FEF11F0B7EF11F0010E4F
:102340001024D96E010E1120DA6EDF50036E046A7C
:102350000A50031807E10B500418D8A4B2EF11F08B
:10236000B4EF11F0B7EF11F0010EB8EF11F0000E5D
:102370001200056E84928494036A05AE01D0032A8C
:10238000010E031603320332835003187F0B031828
:10239000836E05C003F0060E046ED8900332042E3F
:1023A000CDEF11F0010E0316033A034603468350A6
:1023B0000318BF0B0318836E05C003F0050E046EEF
:1023C000D8900332042EE0EF11F0010E0316033A09
:1023D000034683500318DF0B0318836E05C003F018
:1023E000033A0F0E0316010E0316033A8350031827
:1023F000EF0B0318836E030EE82EFED700F08482E5
:10240000040EE82EFED7849205C003F0D890033264
:10241000D8900332D8900332010E031603320332F0
:10242000835003187F0B0318836E05C003F0D89008
:102430000332D8900332010E0316033A03460346D3
:1024400083500318BF0B0318836E05C003F0D890A8
:102450000332010E0316033A034683500318DF0BC1
:102460000318836E05C003F0010E0316033A835070
:102470000318EF0B0318836E030EE82EFED700F04F
:102480008482040EE82EFED78492120E036EDA0EBA
:10249000E82EFED7032EFCD700D01200000E186ED7
:1024A000000E176E000E226E000E216E000E1E6EC4
:1024B000000E1D6E000E1A6E000E196E000E1C6EC0
:1024C000000E1B6E000E246E000E236E000E206E9A
:1024D000000E1F6E02C121F0226A2150226E216A75
:1024E00001010351211203C115F0166A02C117F050
:1024F000186A04C11DF01E6A1D501E6E1D6A05512A
:102500001D1205C119F01A6A04C11BF01C6A1D5086
:102510001E10D8B48EEF12F090EF12F09AEF12F076
:10252000000E2124D96E020E2220DA6EFF0EDF6E1D
:10253000A2EF12F0000E2124D96E020E2220DA6ED4
:10254000000EDF6E010E7D6F050E7E6F15C080F1EF
:1025500017C07FF11BC081F119C082F1080EF9ECA0
:1025600015F003C01FF004C020F020500101836F5C
:102570001FC084F18A8E000E246E000E236EACA262
:10258000C4EF12F0C6EF12F0BFEF12F07D0E23245D
:10259000D96E010E2420DA6EDF50AD6E234A242A54
:1025A000090E23182410D8A4D8EF12F0DAEF12F095
:1025B000BFEF12F08A9E37EC1BF01200959E959C9F
:1025C000959A959896949692839E839C839A8398E5
:1025D00084928494120E066EDA0EE82EFED7062E32
:1025E000FCD700D0120E066EDA0EE82EFED7062EAD
:1025F000FCD700D0120E066EDA0EE82EFED7062E9D
:10260000FCD700D0120E066EDA0EE82EFED7062E8C
:10261000FCD700D0120E066EDA0EE82EFED7062E7C
:10262000FCD700D0120E066EDA0EE82EFED7062E6C
:10263000FCD700D0010E076E839E839C838A83881B
:1026400084928494839E839C838A838884828494E6
:10265000040EE82EFED7839E839C838A838884920F
:102660008494120E066EDA0EE82EFED7062EFCD7E4
:1026700000D0072A030E076440EF13F042EF13F077
:102680001CEF13F0839E839C838A839884928494A6
:10269000839E839C838A839884828494040EE82E8C
:1026A000FED7839E839C838A839884928494120E9F
:1026B000066EDA0EE82EFED7062EFCD700D0280EC6
:1026C000B9EC11F0100EB9EC11F0010EB9EC11F0EB
:1026D0000F0EB9EC11F012003BC013F03CC014F027
:1026E0003DC015F03EC016F043C017F044C018F0CE
:1026F00045C019F046C01AF0F7EC14F0D8B083EFDB
:1027000013F086EF13F0010E87EF13F0000E1F6E2B
:102710004BC013F04CC014F04DC015F04EC016F075
:1027200047C017F048C018F049C019F04AC01AF065
:10273000F7EC14F0D8B09FEF13F0A1EF13F0C6EF51
:1027400013F03BC013F03CC014F03DC015F03EC088
:1027500016F03FC017F040C018F041C019F042C059
:102760001AF0F7EC14F0D8B0B8EF13F0BAEF13F09A
:10277000C6EF13F08B0E036E0F0E046E000E066E86
:10278000000E056E67EC1BF0F1EF13F04BC013F079
:102790004CC014F04DC015F04EC016F047C017F0F5
:1027A00048C018F049C019F04AC01AF0F7EC14F00C
:1027B000D8B0DDEF13F0DFEF13F0E7EF13F01F50A9
:1027C000D8B4E5EF13F0E7EF13F0F1EF13F08B0E51
:1027D000036E0F0E046E000E066E000E056E02EC08
:1027E0001BF01200053406340C6E0C50D8A4FBEF1D
:1027F00013F0FDEF13F007EF14F0000E036E000E60
:10280000046E000E056E000E066E74EF14F003C029
:1028100007F004C008F005C009F006C00AF0200E59
:1028200017EF14F0D8900A32093208320732E82E36
:1028300012EF14F007500B6E058EFF0E0316FF0EFD
:102840000416FF0E0516000E0616960E0C5E0CBE44
:102850002EEF14F02CEF14F044EF14F00C50800A1B
:10286000970FD8B036EF14F038EF14F03AEF14F0B9
:10287000FDEF13F0D89006320532043203320C3EDD
:102880003AEF14F05CEF14F01F0E0C644AEF14F0F2
:102890004CEF14F054EF14F0FDEF13F0D890033622
:1028A0000436053606360C060C50D8A45AEF14F040
:1028B0005CEF14F04EEF14F00B50D8B462EF14F04C
:1028C00064EF14F06CEF14F0061E051E041E036C7A
:1028D000000E04220522062203C003F004C004F007
:1028E00005C005F006C006F01200000E186E000EBE
:1028F000176E000E1E6E000E1D6E000E206E000E76
:102900001F6E000E1A6E000E196E000E1C6E000E69
:102910001B6E000E226E000E216E000E246E000E45
:10292000236E02C11DF01E6A1D501E6E1D6A01013C
:1029300003511D1203C115F0166A02C117F0186A7F
:1029400004C11FF0206A1F50206E1F6A05511F121C
:1029500005C119F01A6A04C11BF01C6AD8901D3415
:10296000D96E1E34DA6E800ED926000EDA221FC010
:10297000DEFF20C0DDFF010E7D6F060E7E6F15C0ED
:1029800080F117C07FF11BC081F119C082F1080EE0
:10299000F9EC15F003C021F004C022F0225001012F
:1029A000836F21C084F18A8E000E246E000E236E88
:1029B000ACA2DDEF14F0DFEF14F0D8EF14F07D0ED1
:1029C0002324D96E010E2420DA6EDF50AD6E234A27
:1029D000242A090E23182410D8A4F1EF14F0F3EFE1
:1029E00014F0D8EF14F08A9E37EC1BF01200000EA2
:1029F00013141B6E000E14141C6E800E15141D6E25
:102A00007F0E16141E6E1B501C101D101E10D8A415
:102A10000CEF15F00EEF15F016EF15F0000E136E1B
:102A2000000E146E000E156E000E166E000E1714BA
:102A30001B6E000E18141C6E800E19141D6E7F0E76
:102A40001A141E6E1B501C101D101E10D8A42BEF44
:102A500015F02DEF15F035EF15F0000E176E000E86
:102A6000186E000E196E000E1A6E16AE3AEF15F0C3
:102A70003CEF15F045EF15F0136C141ED8B0142A76
:102A8000151ED8B0152A800E16561AAE4AEF15F04C
:102A90004CEF15F055EF15F0176C181ED8B0182A2A
:102AA000191ED8B0192A800E1A56000E131A000EDD
:102AB000141A000E151A800E161A000E171A000EA0
:102AC000181A000E191A800E1A1A1750135C185093
:102AD0001458195015581A501658D8B072EF15F0EE
:102AE00074EF15F077EF15F0D89078EF15F0D880E7
:102AF00012009CEC1AF0FEEC1BF0DEEC12F00C0E57
:102B0000B9EC11F03BEC1AF0D2EC19F00BEC1CF024
:102B1000040080C055F081C056F082C053F083C0DD
:102B200054F05E50D8B497EF15F099EF15F09DEF83
:102B300015F0BCEC17F0CEEC18F071EC16F081CF6C
:102B40002FF0306A000E326E000E316E680E336E5A
:102B5000000E346E720E356E000E366E820E376EBB
:102B6000350E386E20EC18F05C50D8A4BAEF15F092
:102B7000BCEF15F0C0EF15F06CEC13F0C2EF15F0E0
:102B80007FEC1BF081CF2FF0306A000E326E030E07
:102B9000316E640E336E000E346E6E0E356E000EA6
:102BA000366EA40E376E2E0E386E20EC18F081CFE4
:102BB0002FF0306A000E326E040E316E620E336EEC
:102BC000000E346E6C0E356E000E366ED00E376E03
:102BD0002D0E386E20EC18F074A0F1EF15F0F3EF25
:102BE00015F088EF15F0CFEC1BF088EF15F007EF2C
:102BF00000F00A6E13681468000E0C6E000E0B6E67
:102C0000000E126E000E116E000E106E000E0F6E92
:102C100039EF16F07D0E0F24D96E010E1020DA6EFA
:102C2000DF50056E0550131A000E126E080E116E5D
:102C300013A01DEF16F01FEF16F028EF16F0D89036
:102C400014321332010E131AA00E141A2BEF16F0C1
:102C5000D890143213321106D8A012061150121057
:102C6000D8A435EF16F037EF16F018EF16F00F4A2C
:102C7000102AFE0E056EFF0E066E0A50076E086AD9
:102C8000055007260650082207500F5C1050800A96
:102C9000096E0850800A0958D8A051EF16F053EF7A
:102CA00016F00AEF16F01350066E056A05C00DF017
:102CB00006C00EF013C005F014C006F006C005F003
:102CC000066A05500B6E0C6A0B500D120C500E125A
:102CD0000DC013F00EC014F013C003F014C004F0C4
:102CE0001200000E5AEC19F003C02AF004C02BF0B9
:102CF000010E5AEC19F003C02CF004C02DF02AC0CC
:102D000003F02BC004F0000E04BEFF0E056E066E2D
:102D1000010E13EC0EF003C011F004C012F005C058
:102D200013F006C014F0140E156EAE0E166E230EC0
:102D3000176E410E186E5AEC08F011C047F012C021
:102D400048F013C049F014C04AF02CC003F02DC065
:102D500004F0000E04BEFF0E056E066E010E13ECAD
:102D60000EF003C011F004C012F005C013F006C04D
:102D700014F0140E156EAE0E166E230E176E410E65
:102D8000186E5AEC08F011C03BF012C03CF013C0B2
:102D90003DF014C03EF047C003F048C004F049C005
:102DA00005F04AC006F0F2EC13F003C088F004C04E
:102DB00089F03BC003F03CC004F03DC005F03EC0CC
:102DC00006F0F2EC13F003C08AF004C08BF012009E
:102DD000020E5B6ECFEC1BF02C0ECE6ECF0ECF6EC4
:102DE000FF0E5A6E060E596E000E136E000E146E14
:102DF000C80E156E420E166E000E076E000E086E9F
:102E0000200E096E410E0A6E3FC003F040C004F070
:102E100041C005F042C006F0FAEC05F003C017F01F
:102E200004C018F005C019F006C01AF0F7EC14F051
:102E3000D8A01DEF17F01FEF17F03BEF17F03FC0C2
:102E400003F040C004F041C005F042C006F0000E9F
:102E5000076E000E086E200E096E410E0A6EFAEC27
:102E600005F003C03FF004C040F005C041F006C0CB
:102E700042F043EF17F0000E3F6E000E406E000E62
:102E8000416E000E426E3FC003F040C004F041C0EE
:102E900005F042C006F0F2EC13F003C086F004C067
:102EA00087F01200020E5B6ECFEC1BF02C0ECE6E84
:102EB000CF0ECF6EFF0E5A6E060E596E000E136EB9
:102EC000000E146EC80E156E420E166E000E076EC2
:102ED000000E086E200E096E410E0A6E4BC003F004
:102EE0004CC004F04DC005F04EC006F0FAEC05F001
:102EF00003C017F004C018F005C019F006C01AF09E
:102F0000F7EC14F0D8A087EF17F089EF17F0A5EFD2
:102F100017F04BC003F04CC004F04DC005F04EC09C
:102F200006F0000E076E000E086E200E096E410EB0
:102F30000A6EFAEC05F003C04BF004C04CF005C07B
:102F40004DF006C04EF0ADEF17F0000E4B6E000EC8
:102F50004C6E000E4D6E000E4E6E4BC003F04CC01A
:102F600004F04DC005F04EC006F0F2EC13F003C0C3
:102F700084F004C085F0120001010005D8A4C3EF5D
:102F800017F0C5EF17F01DEF18F024EC11F0000951
:102F9000D8B4CDEF17F0CFEF17F01DEF18F0010107
:102FA0000105D8A4D6EF17F0D8EF17F0DCEF17F033
:102FB0003CEC0BF01DEF18F0020E0119D8A4E3EF62
:102FC00017F0E5EF17F0E9EF17F027EC0AF01DEF27
:102FD00018F0030E0119D8A4F0EF17F0F2EF17F074
:102FE000F6EF17F051EC0CF01DEF18F0040E01197C
:102FF000D8A4FDEF17F0FFEF17F003EF18F032EC55
:103000000DF01DEF18F0050E0119D8A40AEF18F005
:103010000CEF18F010EF18F04EEC12F01DEF18F056
:10302000060E0119D8A417EF18F019EF18F01DEFCC
:1030300018F075EC14F01DEF18F0000E5E6E120023
:103040002FC003F030C004F031C005F032C006F0EC
:1030500095EC1BF003500410D8A431EF18F033EFB7
:1030600018F06DEF18F033C0D9FF34C0DAFFDE502E
:10307000DE10D8A43EEF18F040EF18F07DEF18F006
:1030800035C0D9FF36C0DAFFDE50DE10D8B44BEFC2
:1030900018F04DEF18F056EF18F035C0D9FF36C0D4
:1030A000DAFFDE06000EDD5A7DEF18F033C0D9FFDF
:1030B00034C0DAFF010EDE6E000EDD6E02D86BEF5B
:1030C00018F00500FA6E3750FD6E3850FE6EF8505D
:1030D000FF6EFA5012007DEF18F035C0D9FF36C0F0
:1030E000DAFF0A0EDE6E000EDD6E33C0D9FF34C08B
:1030F000DAFF000EDE6E000EDD6E12000001805160
:10310000551807E181515618D8A489EF18F08BEFB4
:1031100018F0AEEF18F08BCF03F0046A000E066EC5
:10312000000E056E95EC1BF000018051031809E1BB
:1031300081510418D8B49FEF18F0A1EF18F0AEEF4A
:1031400018F08BCF03F0046A000E066E000E056EB9
:1031500095EC1BF003C080F004C081F053500001D7
:10316000821907E154508319D8A4B9EF18F0BBEFC6
:1031700018F0CDEF18F05C500A6E0B6A82510A18F5
:1031800009E183510B18D8B4C8EF18F0CAEF18F052
:10319000CDEF18F05CC082F0836B12007EEC18F06B
:1031A000000180058111D8A4D8EF18F0DAEF18F0EB
:1031B000E6EF18F08B0E036E0F0E046E000E066E17
:1031C000000E056E67EC1BF0F0EF18F08B0E036E2F
:1031D0000F0E046E000E066E000E056E02EC1BF064
:1031E00082C05CF084C003F085C004F0056A066A02
:1031F000000E13EC0EF003C04BF004C04CF005C001
:103200004DF006C04EF086C003F087C004F0056A9A
:10321000066A000E13EC0EF003C03FF004C040F04D
:1032200005C041F006C042F01200096E2CEF19F003
:103230000650800F0A6E3FEF19F00650C00F0A6E5D
:103240003FEF19F00650940F0A6E3FEF19F0065049
:10325000D40F0A6E3FEF19F00950010AD8B418EFE5
:1032600019F0030AD8B41DEF19F0010AD8B422EFFF
:1032700019F0070AD8B427EF19F03FEF19F00A50F8
:10328000B9EC11F04DEF19F007C0D9FF08C0DAFF13
:10329000DF508CEC10F0074A082A07C0D9FF08C09D
:1032A000DAFFDF50D8A457EF19F059EF19F044EFC7
:1032B00019F01200096E69EF19F0010EC26E78EF75
:1032C00019F0050EC26E78EF19F0110EC26E78EF8C
:1032D00019F00950000AD8B45DEF19F0010AD8B40A
:1032E00061EF19F0030AD8B465EF19F078EF19F01F
:1032F000C282C2B27EEF19F080EF19F079EF19F0B7
:10330000C3CF05F0060E066ED8900532062E84EF68
:1033100019F00550C4CF07F0086AD8900736083670
:10332000D890073608360710036E0850046E120056
:10333000000E086E000E076E05500610D8B4A3EFFD
:1033400019F0A5EF19F0CDEF19F0010E096EADEFF0
:1033500019F0D89005360636092A06AEB2EF19F0F4
:10336000B4EF19F0A9EF19F0D890073608360550D8
:10337000035C06500458D8A0C0EF19F0C2EF19F052
:10338000C7EF19F00550035E0650045A0780D89025
:1033900006320532092EB4EF19F007C003F008C059
:1033A00004F01200000E046E000E056E000E066E94
:1033B000000E076E110E046E040E056E000E066EF2
:1033C000000E076E060E036ED890073206320532E5
:1033D0000432032EE4EF19F00406000E055A065AD3
:1033E000075A05EC1CF0939E8A9E000EAC6E000EF0
:1033F000AB6E949C948EAC98AC9CAC96AC94AB8821
:10340000AB9C9D8A9D98B89604C0AFFFAC8AAB8EEA
:1034100012000C500D10D8B410EF1AF012EF1AF081
:1034200036EF1AF0010E0E6E1AEF1AF0D8900C3625
:103430000D360E2A0DAE1FEF1AF021EF1AF016EF1F
:103440001AF00C500A5C0D500B58D8A02AEF1AF055
:103450002CEF1AF030EF1AF00C500A5E0D500B5A98
:10346000D8900D320C320E2E21EF1AF00AC00AF05D
:103470000BC00BF01200000E476E000E486E000EDF
:10348000496E000E4A6E000E4B6E000E4C6E000E22
:103490004D6E000E4E6E000E4F6E000E506EC80E3A
:1034A000516E420E526E000E3B6E000E3C6E000ED0
:1034B0003D6E000E3E6E000E3F6E000E406E000E22
:1034C000416E000E426E000E436E000E446EB40E4E
:1034D000456E420E466E1200220EF66E380EF76EE4
:1034E000000EF86E00EE6AF010EE0AF00900F5CF5B
:1034F000EEFFE550E150FAE102EE00F0520EEE6A06
:10350000E806FDE101EE00F0FA0EEE6AE806FDE1E4
:1035100000EE80F0640EEE6AE806FDE1746A00EEEB
:103520003BF02F0EEE6AE806FDE175907592000EF5
:10353000F86E000179EF15F0F19E92683F0E936EE0
:10354000000E946E000E956E000E966E000E806E4C
:10355000000E896E000E816E000E8A6E000E826E65
:10356000000E8B6E000E836E000E8C6E000E846E4D
:10357000000E8D6EF28CF28E1BEC1CF0F5EC1BF045
:1035800012008CB0C6EF1AF0C9EF1AF0010ECAEFA4
:103590001AF0000EFF0A036E8C500318FE0B03187E
:1035A0008C6E5C50D8A4D7EF1AF0D9EF1AF0DDEF8B
:1035B0001AF0010E5C6EDFEF1AF0000E5C6E5CC05C
:1035C00082F00001836B120003C007F004C008F012
:1035D000EEEF1AF0074A082A054A062A05C0F6FF48
:1035E00006C0F7FF07C0D9FF08C0DAFF0800F5CF13
:1035F000DFFFDF50D8A4FFEF1AF001EF1BF0EAEF76
:103600001AF0120005C007F0010E086E000E096ED8
:10361000072A0EEF1BF0D89008360936072E0BEF5D
:103620001BF0081C0A6E091C0B6E03C0D9FF04C0F6
:10363000DAFF0A50DE160B50DD161200056E000E82
:10364000046E3A0E056027EF1BF029EF1BF033EFF5
:103650001BF02F0E05642FEF1BF031EF1BF033EF43
:103660001BF0010E046E04C003F003301200000EC4
:10367000086E7D0E0824D96EDA6A010EDA22000E79
:10368000DF6E082A7C0E086448EF1BF04AEF1BF03F
:1036900039EF1BF005EC1CF0D2EC19F0120005C05C
:1036A00007F0010E086E000E096E072A5BEF1BF093
:1036B000D89008360936072E58EF1BF003C0D9FF03
:1036C00004C0DAFF0850DE1A0950DD1A120005C0E6
:1036D00007F0010E086E000E096E072A73EF1BF04B
:1036E000D89008360936072E70EF1BF003C0D9FFBB
:1036F00004C0DAFF0850DE120950DD12120081CF3B
:103700002FF0306A000E326E010E316E660E336E8F
:10371000000E346E700E356E000E366ED40E376E9F
:10372000370E386E20EC18F0120005C007F003C009
:1037300008F004C009F0072AA1EF1BF0D890093265
:103740000832072E9EEF1BF0010E0814036E046A68
:103750001200000E066E0B0E076E000E086E010EB4
:1037600015EC19F0000E066E1B0E076E000E086EAB
:10377000020E15EC19F0120003500502F3CF07F00A
:10378000F4CF08F003500602F35008260450050257
:10379000F350082607C003F008C004F01200EDEC57
:1037A0000EF022EE32F000EE0BF01F0EDBCFEBFF3F
:1037B000E806FCE2A9EC1BF074901200D59ED59CA3
:1037C000D59AD586F50ED76ED70ED66ED58EF294D5
:1037D000F28A12008B0E036E0F0E046E000E066E40
:1037E000000E056E4FEC1BF012009D809E902C0E7B
:1037F000CE6ECF0ECF6E210ECD6E1200010EC26EB8
:103800000B0EC16E010EC06E12004F0EAB16AC9ABD
:10381000CF0E9D161200D09E9E9AF294F28CF28EDC
:1038200012000A010A000A000A000A00F50ED76E0B
:08383000D70ED66E1200120043
:020000040020DA
:08000000FFFFFFFFFFFFFFFF00
:020000040030CA
:0E000000FF021F1EFF8185FF0FC00FE00F40A3
:00000001FF
