:020000040000FA
:02000000FE2FD1
:100F7400FF3083160313850086010F308312031399
:100F840085000F308600831203138518CA2FCE2FD5
:100F9400831203130614D12F8312031306100519A9
:100FA400D42FD82F831203138614DB2F8312031339
:100FB40086108519DE2FE22F831203130615E52F01
:100FC400831203130611051AE82FEC2F831203135F
:100FD4008615EF2F8312031386110330F2008A3033
:100FE400F1005530F000F00BF52FF10BF52FF20B5B
:0C0FF400F52FFC2FC52F00288301BA2F19
:02400E00F83F79
:00000001FF
